{
  "_format": "hh-sol-artifact-1",
  "contractName": "EmployeeManagementSystem",
  "sourceName": "contracts/Employee.sol",
  "abi": [
    {
      "inputs": [],
      "name": "AlreadyRegistered",
      "type": "error"
    },
    {
      "inputs": [],
      "name": "InsufficientContractBalance",
      "type": "error"
    },
    {
      "inputs": [],
      "name": "NotAuthorized",
      "type": "error"
    },
    {
      "inputs": [],
      "name": "NotEligibleForPayment",
      "type": "error"
    },
    {
      "inputs": [],
      "name": "StaffNotFound",
      "type": "error"
    },
    {
      "inputs": [
        {
          "internalType": "address",
          "name": "staffAddress",
          "type": "address"
        }
      ],
      "name": "getStaff",
      "outputs": [
        {
          "components": [
            {
              "internalType": "string",
              "name": "fullName",
              "type": "string"
            },
            {
              "internalType": "enum Istaff.Role",
              "name": "role",
              "type": "uint8"
            },
            {
              "internalType": "enum Istaff.Status",
              "name": "status",
              "type": "uint8"
            },
            {
              "internalType": "uint256",
              "name": "salary",
              "type": "uint256"
            }
          ],
          "internalType": "struct Istaff.Staff",
          "name": "",
          "type": "tuple"
        }
      ],
      "stateMutability": "view",
      "type": "function"
    },
    {
      "inputs": [
        {
          "internalType": "address",
          "name": "staffAddress",
          "type": "address"
        }
      ],
      "name": "get_staff_details",
      "outputs": [
        {
          "components": [
            {
              "internalType": "string",
              "name": "fullName",
              "type": "string"
            },
            {
              "internalType": "enum Istaff.Role",
              "name": "role",
              "type": "uint8"
            },
            {
              "internalType": "enum Istaff.Status",
              "name": "status",
              "type": "uint8"
            },
            {
              "internalType": "uint256",
              "name": "salary",
              "type": "uint256"
            }
          ],
          "internalType": "struct Istaff.Staff",
          "name": "",
          "type": "tuple"
        }
      ],
      "stateMutability": "view",
      "type": "function"
    },
    {
      "inputs": [],
      "name": "owner",
      "outputs": [
        {
          "internalType": "address",
          "name": "",
          "type": "address"
        }
      ],
      "stateMutability": "view",
      "type": "function"
    },
    {
      "inputs": [
        {
          "internalType": "address",
          "name": "staffAddress",
          "type": "address"
        }
      ],
      "name": "paySalary",
      "outputs": [],
      "stateMutability": "payable",
      "type": "function"
    },
    {
      "inputs": [
        {
          "internalType": "address",
          "name": "staffAddress",
          "type": "address"
        },
        {
          "internalType": "string",
          "name": "fullName",
          "type": "string"
        },
        {
          "internalType": "uint256",
          "name": "salary",
          "type": "uint256"
        }
      ],
      "name": "registerStaff",
      "outputs": [],
      "stateMutability": "nonpayable",
      "type": "function"
    },
    {
      "inputs": [
        {
          "internalType": "address",
          "name": "_owner",
          "type": "address"
        }
      ],
      "name": "setOwner",
      "outputs": [],
      "stateMutability": "nonpayable",
      "type": "function"
    },
    {
      "inputs": [
        {
          "internalType": "address",
          "name": "staffAddress",
          "type": "address"
        },
        {
          "internalType": "enum Istaff.Role",
          "name": "role",
          "type": "uint8"
        }
      ],
      "name": "updateEmployeeRole",
      "outputs": [],
      "stateMutability": "nonpayable",
      "type": "function"
    },
    {
      "inputs": [
        {
          "internalType": "address",
          "name": "staffAddress",
          "type": "address"
        },
        {
          "internalType": "enum Istaff.Status",
          "name": "status",
          "type": "uint8"
        }
      ],
      "name": "updateStatus",
      "outputs": [],
      "stateMutability": "nonpayable",
      "type": "function"
    },
    {
      "stateMutability": "payable",
      "type": "receive"
    }
  ],
  "bytecode": "0x6080604052348015600f57600080fd5b5061167e8061001f6000396000f3fe60806040526004361061007f5760003560e01c806344c5bbf81161004e57806344c5bbf8146101225780637527501f1461014b5780638da5cb5b14610188578063ddd79504146101b357610086565b80630a65d4711461008b5780630ea37aef146100b457806313af4035146100d0578063400757fa146100f957610086565b3661008657005b600080fd5b34801561009757600080fd5b506100b260048036038101906100ad9190610f4d565b6101f0565b005b6100ce60048036038101906100c99190610f8d565b61035f565b005b3480156100dc57600080fd5b506100f760048036038101906100f29190610f8d565b610671565b005b34801561010557600080fd5b50610120600480360381019061011b9190611055565b61073a565b005b34801561012e57600080fd5b50610149600480360381019061014491906110ee565b61098f565b005b34801561015757600080fd5b50610172600480360381019061016d9190610f8d565b610afe565b60405161017f91906112ef565b60405180910390f35b34801561019457600080fd5b5061019d610c69565b6040516101aa9190611320565b60405180910390f35b3480156101bf57600080fd5b506101da60048036038101906101d59190610f8d565b610c8d565b6040516101e791906112ef565b60405180910390f35b60008054906101000a900473ffffffffffffffffffffffffffffffffffffffff1673ffffffffffffffffffffffffffffffffffffffff163373ffffffffffffffffffffffffffffffffffffffff1614610275576040517fea8e4eb500000000000000000000000000000000000000000000000000000000815260040160405180910390fd5b6000600160008473ffffffffffffffffffffffffffffffffffffffff1673ffffffffffffffffffffffffffffffffffffffff16815260200190815260200160002060020154036102f1576040517f920804ea00000000000000000000000000000000000000000000000000000000815260040160405180910390fd5b80600160008473ffffffffffffffffffffffffffffffffffffffff1673ffffffffffffffffffffffffffffffffffffffff16815260200190815260200160002060010160006101000a81548160ff02191690836003811115610356576103556111be565b5b02179055505050565b60008054906101000a900473ffffffffffffffffffffffffffffffffffffffff1673ffffffffffffffffffffffffffffffffffffffff163373ffffffffffffffffffffffffffffffffffffffff16146103e4576040517fea8e4eb500000000000000000000000000000000000000000000000000000000815260040160405180910390fd5b6000600160008373ffffffffffffffffffffffffffffffffffffffff1673ffffffffffffffffffffffffffffffffffffffff1681526020019081526020016000206040518060800160405290816000820180546104409061136a565b80601f016020809104026020016040519081016040528092919081815260200182805461046c9061136a565b80156104b95780601f1061048e576101008083540402835291602001916104b9565b820191906000526020600020905b81548152906001019060200180831161049c57829003601f168201915b505050505081526020016001820160009054906101000a900460ff1660038111156104e7576104e66111be565b5b60038111156104f9576104f86111be565b5b81526020016001820160019054906101000a900460ff166002811115610522576105216111be565b5b6002811115610534576105336111be565b5b815260200160028201548152505090506000816060015103610582576040517f920804ea00000000000000000000000000000000000000000000000000000000815260040160405180910390fd5b60006002811115610596576105956111be565b5b816040015160028111156105ad576105ac6111be565b5b146105e4576040517fe225cf9800000000000000000000000000000000000000000000000000000000815260040160405180910390fd5b8060600151471015610622576040517f786e0a9900000000000000000000000000000000000000000000000000000000815260040160405180910390fd5b8173ffffffffffffffffffffffffffffffffffffffff166108fc82606001519081150290604051600060405180830381858888f1935050505015801561066c573d6000803e3d6000fd5b505050565b600073ffffffffffffffffffffffffffffffffffffffff1660008054906101000a900473ffffffffffffffffffffffffffffffffffffffff1673ffffffffffffffffffffffffffffffffffffffff16146106f7576040517f3a81d6fc00000000000000000000000000000000000000000000000000000000815260040160405180910390fd5b806000806101000a81548173ffffffffffffffffffffffffffffffffffffffff021916908373ffffffffffffffffffffffffffffffffffffffff16021790555050565b60008054906101000a900473ffffffffffffffffffffffffffffffffffffffff1673ffffffffffffffffffffffffffffffffffffffff163373ffffffffffffffffffffffffffffffffffffffff16146107bf576040517fea8e4eb500000000000000000000000000000000000000000000000000000000815260040160405180910390fd5b6000600160008673ffffffffffffffffffffffffffffffffffffffff1673ffffffffffffffffffffffffffffffffffffffff16815260200190815260200160002060020154111561083c576040517f3a81d6fc00000000000000000000000000000000000000000000000000000000815260040160405180910390fd5b604051806080016040528084848080601f016020809104026020016040519081016040528093929190818152602001838380828437600081840152601f19601f820116905080830192505050505050508152602001600060038111156108a5576108a46111be565b5b8152602001600060028111156108be576108bd6111be565b5b815260200182815250600160008673ffffffffffffffffffffffffffffffffffffffff1673ffffffffffffffffffffffffffffffffffffffff168152602001908152602001600020600082015181600001908161091b9190611576565b5060208201518160010160006101000a81548160ff02191690836003811115610947576109466111be565b5b021790555060408201518160010160016101000a81548160ff02191690836002811115610977576109766111be565b5b02179055506060820151816002015590505050505050565b60008054906101000a900473ffffffffffffffffffffffffffffffffffffffff1673ffffffffffffffffffffffffffffffffffffffff163373ffffffffffffffffffffffffffffffffffffffff1614610a14576040517fea8e4eb500000000000000000000000000000000000000000000000000000000815260040160405180910390fd5b6000600160008473ffffffffffffffffffffffffffffffffffffffff1673ffffffffffffffffffffffffffffffffffffffff1681526020019081526020016000206002015403610a90576040517f920804ea00000000000000000000000000000000000000000000000000000000815260040160405180910390fd5b80600160008473ffffffffffffffffffffffffffffffffffffffff1673ffffffffffffffffffffffffffffffffffffffff16815260200190815260200160002060010160016101000a81548160ff02191690836002811115610af557610af46111be565b5b02179055505050565b610b06610e74565b600160008373ffffffffffffffffffffffffffffffffffffffff1673ffffffffffffffffffffffffffffffffffffffff168152602001908152602001600020604051806080016040529081600082018054610b609061136a565b80601f0160208091040260200160405190810160405280929190818152602001828054610b8c9061136a565b8015610bd95780601f10610bae57610100808354040283529160200191610bd9565b820191906000526020600020905b815481529060010190602001808311610bbc57829003601f168201915b505050505081526020016001820160009054906101000a900460ff166003811115610c0757610c066111be565b5b6003811115610c1957610c186111be565b5b81526020016001820160019054906101000a900460ff166002811115610c4257610c416111be565b5b6002811115610c5457610c536111be565b5b81526020016002820154815250509050919050565b60008054906101000a900473ffffffffffffffffffffffffffffffffffffffff1681565b610c95610e74565b6000600160008473ffffffffffffffffffffffffffffffffffffffff1673ffffffffffffffffffffffffffffffffffffffff1681526020019081526020016000206002015403610d11576040517f920804ea00000000000000000000000000000000000000000000000000000000815260040160405180910390fd5b600160008373ffffffffffffffffffffffffffffffffffffffff1673ffffffffffffffffffffffffffffffffffffffff168152602001908152602001600020604051806080016040529081600082018054610d6b9061136a565b80601f0160208091040260200160405190810160405280929190818152602001828054610d979061136a565b8015610de45780601f10610db957610100808354040283529160200191610de4565b820191906000526020600020905b815481529060010190602001808311610dc757829003601f168201915b505050505081526020016001820160009054906101000a900460ff166003811115610e1257610e116111be565b5b6003811115610e2457610e236111be565b5b81526020016001820160019054906101000a900460ff166002811115610e4d57610e4c6111be565b5b6002811115610e5f57610e5e6111be565b5b81526020016002820154815250509050919050565b60405180608001604052806060815260200160006003811115610e9a57610e996111be565b5b815260200160006002811115610eb357610eb26111be565b5b8152602001600081525090565b600080fd5b600080fd5b600073ffffffffffffffffffffffffffffffffffffffff82169050919050565b6000610ef582610eca565b9050919050565b610f0581610eea565b8114610f1057600080fd5b50565b600081359050610f2281610efc565b92915050565b60048110610f3557600080fd5b50565b600081359050610f4781610f28565b92915050565b60008060408385031215610f6457610f63610ec0565b5b6000610f7285828601610f13565b9250506020610f8385828601610f38565b9150509250929050565b600060208284031215610fa357610fa2610ec0565b5b6000610fb184828501610f13565b91505092915050565b600080fd5b600080fd5b600080fd5b60008083601f840112610fdf57610fde610fba565b5b8235905067ffffffffffffffff811115610ffc57610ffb610fbf565b5b60208301915083600182028301111561101857611017610fc4565b5b9250929050565b6000819050919050565b6110328161101f565b811461103d57600080fd5b50565b60008135905061104f81611029565b92915050565b6000806000806060858703121561106f5761106e610ec0565b5b600061107d87828801610f13565b945050602085013567ffffffffffffffff81111561109e5761109d610ec5565b5b6110aa87828801610fc9565b935093505060406110bd87828801611040565b91505092959194509250565b600381106110d657600080fd5b50565b6000813590506110e8816110c9565b92915050565b6000806040838503121561110557611104610ec0565b5b600061111385828601610f13565b9250506020611124858286016110d9565b9150509250929050565b600081519050919050565b600082825260208201905092915050565b60005b8381101561116857808201518184015260208101905061114d565b60008484015250505050565b6000601f19601f8301169050919050565b60006111908261112e565b61119a8185611139565b93506111aa81856020860161114a565b6111b381611174565b840191505092915050565b7f4e487b7100000000000000000000000000000000000000000000000000000000600052602160045260246000fd5b600481106111fe576111fd6111be565b5b50565b600081905061120f826111ed565b919050565b600061121f82611201565b9050919050565b61122f81611214565b82525050565b60038110611246576112456111be565b5b50565b600081905061125782611235565b919050565b600061126782611249565b9050919050565b6112778161125c565b82525050565b6112868161101f565b82525050565b600060808301600083015184820360008601526112a98282611185565b91505060208301516112be6020860182611226565b5060408301516112d1604086018261126e565b5060608301516112e4606086018261127d565b508091505092915050565b60006020820190508181036000830152611309818461128c565b905092915050565b61131a81610eea565b82525050565b60006020820190506113356000830184611311565b92915050565b7f4e487b7100000000000000000000000000000000000000000000000000000000600052602260045260246000fd5b6000600282049050600182168061138257607f821691505b6020821081036113955761139461133b565b5b50919050565b7f4e487b7100000000000000000000000000000000000000000000000000000000600052604160045260246000fd5b60008190508160005260206000209050919050565b60006020601f8301049050919050565b600082821b905092915050565b60006008830261142c7fffffffffffffffffffffffffffffffffffffffffffffffffffffffffffffffff826113ef565b61143686836113ef565b95508019841693508086168417925050509392505050565b6000819050919050565b600061147361146e6114698461101f565b61144e565b61101f565b9050919050565b6000819050919050565b61148d83611458565b6114a16114998261147a565b8484546113fc565b825550505050565b600090565b6114b66114a9565b6114c1818484611484565b505050565b5b818110156114e5576114da6000826114ae565b6001810190506114c7565b5050565b601f82111561152a576114fb816113ca565b611504846113df565b81016020851015611513578190505b61152761151f856113df565b8301826114c6565b50505b505050565b600082821c905092915050565b600061154d6000198460080261152f565b1980831691505092915050565b6000611566838361153c565b9150826002028217905092915050565b61157f8261112e565b67ffffffffffffffff8111156115985761159761139b565b5b6115a2825461136a565b6115ad8282856114e9565b600060209050601f8311600181146115e057600084156115ce578287015190505b6115d8858261155a565b865550611640565b601f1984166115ee866113ca565b60005b82811015611616578489015182556001820191506020850194506020810190506115f1565b86831015611633578489015161162f601f89168261153c565b8355505b6001600288020188555050505b50505050505056fea2646970667358221220959fac79265ec37796cf96f850f55c8d83e2c3916428b0964827f4783e9b643064736f6c634300081c0033",
  "linkReferences": {},
  "deployedLinkReferences": {}
}