{
  "contracts/School.sol": {
    "SchoolManagementSystem": {
      "abi": [
        {
          "inputs": [
            {
              "internalType": "uint256",
              "name": "_id",
              "type": "uint256"
            }
          ],
          "name": "deleteStudent",
          "outputs": [],
          "stateMutability": "nonpayable",
          "type": "function"
        },
        {
          "inputs": [],
          "name": "getAllStudents",
          "outputs": [
            {
              "components": [
                {
                  "internalType": "uint256",
                  "name": "id",
                  "type": "uint256"
                },
                {
                  "internalType": "string",
                  "name": "name",
                  "type": "string"
                },
                {
                  "internalType": "uint256",
                  "name": "age",
                  "type": "uint256"
                },
                {
                  "internalType": "enum SchoolManagementSystem.Status",
                  "name": "status",
                  "type": "uint8"
                }
              ],
              "internalType": "struct SchoolManagementSystem.Student[]",
              "name": "",
              "type": "tuple[]"
            }
          ],
          "stateMutability": "view",
          "type": "function"
        },
        {
          "inputs": [
            {
              "internalType": "uint256",
              "name": "_id",
              "type": "uint256"
            }
          ],
          "name": "getStudent",
          "outputs": [
            {
              "components": [
                {
                  "internalType": "uint256",
                  "name": "id",
                  "type": "uint256"
                },
                {
                  "internalType": "string",
                  "name": "name",
                  "type": "string"
                },
                {
                  "internalType": "uint256",
                  "name": "age",
                  "type": "uint256"
                },
                {
                  "internalType": "enum SchoolManagementSystem.Status",
                  "name": "status",
                  "type": "uint8"
                }
              ],
              "internalType": "struct SchoolManagementSystem.Student",
              "name": "",
              "type": "tuple"
            }
          ],
          "stateMutability": "view",
          "type": "function"
        },
        {
          "inputs": [
            {
              "internalType": "uint256",
              "name": "_id",
              "type": "uint256"
            }
          ],
          "name": "getStudentStatus",
          "outputs": [
            {
              "internalType": "enum SchoolManagementSystem.Status",
              "name": "",
              "type": "uint8"
            }
          ],
          "stateMutability": "view",
          "type": "function"
        },
        {
          "inputs": [
            {
              "internalType": "string",
              "name": "_name",
              "type": "string"
            },
            {
              "internalType": "uint256",
              "name": "_age",
              "type": "uint256"
            }
          ],
          "name": "registerStudent",
          "outputs": [],
          "stateMutability": "nonpayable",
          "type": "function"
        },
        {
          "inputs": [
            {
              "internalType": "uint256",
              "name": "_id",
              "type": "uint256"
            },
            {
              "internalType": "enum SchoolManagementSystem.Status",
              "name": "_status",
              "type": "uint8"
            }
          ],
          "name": "setStudentStatus",
          "outputs": [],
          "stateMutability": "nonpayable",
          "type": "function"
        },
        {
          "inputs": [
            {
              "internalType": "uint256",
              "name": "_id",
              "type": "uint256"
            },
            {
              "internalType": "string",
              "name": "_name",
              "type": "string"
            },
            {
              "internalType": "uint256",
              "name": "_age",
              "type": "uint256"
            }
          ],
          "name": "updateStudent",
          "outputs": [],
          "stateMutability": "nonpayable",
          "type": "function"
        }
      ],
      "evm": {
        "bytecode": {
          "linkReferences": {},
          "object": "6080604052348015600f57600080fd5b506113ad8061001f6000396000f3fe608060405234801561001057600080fd5b506004361061007d5760003560e01c8063b645307d1161005b578063b645307d146100ea578063baea377614610106578063e9e3092714610136578063ec7505b1146101545761007d565b806312a0b7441461008257806342fe1f581461009e578063642f9163146100ba575b600080fd5b61009c60048036038101906100979190610a4a565b610170565b005b6100b860048036038101906100b39190610acb565b610272565b005b6100d460048036038101906100cf9190610b0b565b61030b565b6040516100e19190610ca0565b60405180910390f35b61010460048036038101906100ff9190610b0b565b610470565b005b610120600480360381019061011b9190610b0b565b610514565b60405161012d9190610cd1565b60405180910390f35b61013e610597565b60405161014b9190610e11565b60405180910390f35b61016e60048036038101906101699190610e33565b610746565b005b6001805461017e9190610ed1565b600181905550600081116101c7576040517f08c379a00000000000000000000000000000000000000000000000000000000081526004016101be90610f62565b60405180910390fd5b60405180608001604052806001548152602001838152602001828152602001600060028111156101fa576101f9610bc6565b5b8152506000806001548152602001908152602001600020600082015181600001556020820151816001019081610230919061118e565b506040820151816002015560608201518160030160006101000a81548160ff0219169083600281111561026657610265610bc6565b5b02179055509050505050565b600080600084815260200190815260200160002060000154036102ca576040517f08c379a00000000000000000000000000000000000000000000000000000000081526004016102c1906112ac565b60405180910390fd5b8060008084815260200190815260200160002060030160006101000a81548160ff0219169083600281111561030257610301610bc6565b5b02179055505050565b610313610823565b6000806000848152602001908152602001600020600001540361036b576040517f08c379a0000000000000000000000000000000000000000000000000000000008152600401610362906112ac565b60405180910390fd5b600080838152602001908152602001600020604051806080016040529081600082015481526020016001820180546103a290610fb1565b80601f01602080910402602001604051908101604052809291908181526020018280546103ce90610fb1565b801561041b5780601f106103f05761010080835404028352916020019161041b565b820191906000526020600020905b8154815290600101906020018083116103fe57829003601f168201915b50505050508152602001600282015481526020016003820160009054906101000a900460ff16600281111561045357610452610bc6565b5b600281111561046557610464610bc6565b5b815250509050919050565b600080600083815260200190815260200160002060000154036104c8576040517f08c379a00000000000000000000000000000000000000000000000000000000081526004016104bf906112ac565b60405180910390fd5b6000808281526020019081526020016000206000808201600090556001820160006104f3919061085d565b60028201600090556003820160006101000a81549060ff0219169055505050565b600080600080848152602001908152602001600020600001540361056d576040517f08c379a0000000000000000000000000000000000000000000000000000000008152600401610564906112ac565b60405180910390fd5b60008083815260200190815260200160002060030160009054906101000a900460ff169050919050565b6060600060015467ffffffffffffffff8111156105b7576105b66108e9565b5b6040519080825280602002602001820160405280156105f057816020015b6105dd610823565b8152602001906001900390816105d55790505b5090506000600190505b600154811161073e576000808281526020019081526020016000206040518060800160405290816000820154815260200160018201805461063a90610fb1565b80601f016020809104026020016040519081016040528092919081815260200182805461066690610fb1565b80156106b35780601f10610688576101008083540402835291602001916106b3565b820191906000526020600020905b81548152906001019060200180831161069657829003601f168201915b50505050508152602001600282015481526020016003820160009054906101000a900460ff1660028111156106eb576106ea610bc6565b5b60028111156106fd576106fc610bc6565b5b815250508260018361070f91906112cc565b815181106107205761071f611300565b5b602002602001018190525080806107369061132f565b9150506105fa565b508091505090565b60008111610789576040517f08c379a000000000000000000000000000000000000000000000000000000000815260040161078090610f62565b60405180910390fd5b600080600085815260200190815260200160002060000154036107e1576040517f08c379a00000000000000000000000000000000000000000000000000000000081526004016107d8906112ac565b60405180910390fd5b816000808581526020019081526020016000206001019081610803919061118e565b508060008085815260200190815260200160002060020181905550505050565b60405180608001604052806000815260200160608152602001600081526020016000600281111561085757610856610bc6565b5b81525090565b50805461086990610fb1565b6000825580601f1061087b575061089a565b601f016020900490600052602060002090810190610899919061089d565b5b50565b5b808211156108b657600081600090555060010161089e565b5090565b6000604051905090565b600080fd5b600080fd5b600080fd5b600080fd5b6000601f19601f8301169050919050565b7f4e487b7100000000000000000000000000000000000000000000000000000000600052604160045260246000fd5b610921826108d8565b810181811067ffffffffffffffff821117156109405761093f6108e9565b5b80604052505050565b60006109536108ba565b905061095f8282610918565b919050565b600067ffffffffffffffff82111561097f5761097e6108e9565b5b610988826108d8565b9050602081019050919050565b82818337600083830152505050565b60006109b76109b284610964565b610949565b9050828152602081018484840111156109d3576109d26108d3565b5b6109de848285610995565b509392505050565b600082601f8301126109fb576109fa6108ce565b5b8135610a0b8482602086016109a4565b91505092915050565b6000819050919050565b610a2781610a14565b8114610a3257600080fd5b50565b600081359050610a4481610a1e565b92915050565b60008060408385031215610a6157610a606108c4565b5b600083013567ffffffffffffffff811115610a7f57610a7e6108c9565b5b610a8b858286016109e6565b9250506020610a9c85828601610a35565b9150509250929050565b60038110610ab357600080fd5b50565b600081359050610ac581610aa6565b92915050565b60008060408385031215610ae257610ae16108c4565b5b6000610af085828601610a35565b9250506020610b0185828601610ab6565b9150509250929050565b600060208284031215610b2157610b206108c4565b5b6000610b2f84828501610a35565b91505092915050565b610b4181610a14565b82525050565b600081519050919050565b600082825260208201905092915050565b60005b83811015610b81578082015181840152602081019050610b66565b60008484015250505050565b6000610b9882610b47565b610ba28185610b52565b9350610bb2818560208601610b63565b610bbb816108d8565b840191505092915050565b7f4e487b7100000000000000000000000000000000000000000000000000000000600052602160045260246000fd5b60038110610c0657610c05610bc6565b5b50565b6000819050610c1782610bf5565b919050565b6000610c2782610c09565b9050919050565b610c3781610c1c565b82525050565b6000608083016000830151610c556000860182610b38565b5060208301518482036020860152610c6d8282610b8d565b9150506040830151610c826040860182610b38565b506060830151610c956060860182610c2e565b508091505092915050565b60006020820190508181036000830152610cba8184610c3d565b905092915050565b610ccb81610c1c565b82525050565b6000602082019050610ce66000830184610cc2565b92915050565b600081519050919050565b600082825260208201905092915050565b6000819050602082019050919050565b6000608083016000830151610d306000860182610b38565b5060208301518482036020860152610d488282610b8d565b9150506040830151610d5d6040860182610b38565b506060830151610d706060860182610c2e565b508091505092915050565b6000610d878383610d18565b905092915050565b6000602082019050919050565b6000610da782610cec565b610db18185610cf7565b935083602082028501610dc385610d08565b8060005b85811015610dff5784840389528151610de08582610d7b565b9450610deb83610d8f565b925060208a01995050600181019050610dc7565b50829750879550505050505092915050565b60006020820190508181036000830152610e2b8184610d9c565b905092915050565b600080600060608486031215610e4c57610e4b6108c4565b5b6000610e5a86828701610a35565b935050602084013567ffffffffffffffff811115610e7b57610e7a6108c9565b5b610e87868287016109e6565b9250506040610e9886828701610a35565b9150509250925092565b7f4e487b7100000000000000000000000000000000000000000000000000000000600052601160045260246000fd5b6000610edc82610a14565b9150610ee783610a14565b9250828201905080821115610eff57610efe610ea2565b5b92915050565b600082825260208201905092915050565b7f416765206d7573742062652067726561746572207468616e2030000000000000600082015250565b6000610f4c601a83610f05565b9150610f5782610f16565b602082019050919050565b60006020820190508181036000830152610f7b81610f3f565b9050919050565b7f4e487b7100000000000000000000000000000000000000000000000000000000600052602260045260246000fd5b60006002820490506001821680610fc957607f821691505b602082108103610fdc57610fdb610f82565b5b50919050565b60008190508160005260206000209050919050565b60006020601f8301049050919050565b600082821b905092915050565b6000600883026110447fffffffffffffffffffffffffffffffffffffffffffffffffffffffffffffffff82611007565b61104e8683611007565b95508019841693508086168417925050509392505050565b6000819050919050565b600061108b61108661108184610a14565b611066565b610a14565b9050919050565b6000819050919050565b6110a583611070565b6110b96110b182611092565b848454611014565b825550505050565b600090565b6110ce6110c1565b6110d981848461109c565b505050565b5b818110156110fd576110f26000826110c6565b6001810190506110df565b5050565b601f8211156111425761111381610fe2565b61111c84610ff7565b8101602085101561112b578190505b61113f61113785610ff7565b8301826110de565b50505b505050565b600082821c905092915050565b600061116560001984600802611147565b1980831691505092915050565b600061117e8383611154565b9150826002028217905092915050565b61119782610b47565b67ffffffffffffffff8111156111b0576111af6108e9565b5b6111ba8254610fb1565b6111c5828285611101565b600060209050601f8311600181146111f857600084156111e6578287015190505b6111f08582611172565b865550611258565b601f19841661120686610fe2565b60005b8281101561122e57848901518255600182019150602085019450602081019050611209565b8683101561124b5784890151611247601f891682611154565b8355505b6001600288020188555050505b505050505050565b7f53747564656e74206e6f7420666f756e64000000000000000000000000000000600082015250565b6000611296601183610f05565b91506112a182611260565b602082019050919050565b600060208201905081810360008301526112c581611289565b9050919050565b60006112d782610a14565b91506112e283610a14565b92508282039050818111156112fa576112f9610ea2565b5b92915050565b7f4e487b7100000000000000000000000000000000000000000000000000000000600052603260045260246000fd5b600061133a82610a14565b91507fffffffffffffffffffffffffffffffffffffffffffffffffffffffffffffffff820361136c5761136b610ea2565b5b60018201905091905056fea2646970667358221220471d6fcbe07a612b1d9375ca32bde77d5de690e04b09ab2190d9c2b7eb35ffb664736f6c634300081c0033",
          "opcodes": "PUSH1 0x80 PUSH1 0x40 MSTORE CALLVALUE DUP1 ISZERO PUSH1 0xF JUMPI PUSH1 0x0 DUP1 REVERT JUMPDEST POP PUSH2 0x13AD DUP1 PUSH2 0x1F PUSH1 0x0 CODECOPY PUSH1 0x0 RETURN INVALID PUSH1 0x80 PUSH1 0x40 MSTORE CALLVALUE DUP1 ISZERO PUSH2 0x10 JUMPI PUSH1 0x0 DUP1 REVERT JUMPDEST POP PUSH1 0x4 CALLDATASIZE LT PUSH2 0x7D JUMPI PUSH1 0x0 CALLDATALOAD PUSH1 0xE0 SHR DUP1 PUSH4 0xB645307D GT PUSH2 0x5B JUMPI DUP1 PUSH4 0xB645307D EQ PUSH2 0xEA JUMPI DUP1 PUSH4 0xBAEA3776 EQ PUSH2 0x106 JUMPI DUP1 PUSH4 0xE9E30927 EQ PUSH2 0x136 JUMPI DUP1 PUSH4 0xEC7505B1 EQ PUSH2 0x154 JUMPI PUSH2 0x7D JUMP JUMPDEST DUP1 PUSH4 0x12A0B744 EQ PUSH2 0x82 JUMPI DUP1 PUSH4 0x42FE1F58 EQ PUSH2 0x9E JUMPI DUP1 PUSH4 0x642F9163 EQ PUSH2 0xBA JUMPI JUMPDEST PUSH1 0x0 DUP1 REVERT JUMPDEST PUSH2 0x9C PUSH1 0x4 DUP1 CALLDATASIZE SUB DUP2 ADD SWAP1 PUSH2 0x97 SWAP2 SWAP1 PUSH2 0xA4A JUMP JUMPDEST PUSH2 0x170 JUMP JUMPDEST STOP JUMPDEST PUSH2 0xB8 PUSH1 0x4 DUP1 CALLDATASIZE SUB DUP2 ADD SWAP1 PUSH2 0xB3 SWAP2 SWAP1 PUSH2 0xACB JUMP JUMPDEST PUSH2 0x272 JUMP JUMPDEST STOP JUMPDEST PUSH2 0xD4 PUSH1 0x4 DUP1 CALLDATASIZE SUB DUP2 ADD SWAP1 PUSH2 0xCF SWAP2 SWAP1 PUSH2 0xB0B JUMP JUMPDEST PUSH2 0x30B JUMP JUMPDEST PUSH1 0x40 MLOAD PUSH2 0xE1 SWAP2 SWAP1 PUSH2 0xCA0 JUMP JUMPDEST PUSH1 0x40 MLOAD DUP1 SWAP2 SUB SWAP1 RETURN JUMPDEST PUSH2 0x104 PUSH1 0x4 DUP1 CALLDATASIZE SUB DUP2 ADD SWAP1 PUSH2 0xFF SWAP2 SWAP1 PUSH2 0xB0B JUMP JUMPDEST PUSH2 0x470 JUMP JUMPDEST STOP JUMPDEST PUSH2 0x120 PUSH1 0x4 DUP1 CALLDATASIZE SUB DUP2 ADD SWAP1 PUSH2 0x11B SWAP2 SWAP1 PUSH2 0xB0B JUMP JUMPDEST PUSH2 0x514 JUMP JUMPDEST PUSH1 0x40 MLOAD PUSH2 0x12D SWAP2 SWAP1 PUSH2 0xCD1 JUMP JUMPDEST PUSH1 0x40 MLOAD DUP1 SWAP2 SUB SWAP1 RETURN JUMPDEST PUSH2 0x13E PUSH2 0x597 JUMP JUMPDEST PUSH1 0x40 MLOAD PUSH2 0x14B SWAP2 SWAP1 PUSH2 0xE11 JUMP JUMPDEST PUSH1 0x40 MLOAD DUP1 SWAP2 SUB SWAP1 RETURN JUMPDEST PUSH2 0x16E PUSH1 0x4 DUP1 CALLDATASIZE SUB DUP2 ADD SWAP1 PUSH2 0x169 SWAP2 SWAP1 PUSH2 0xE33 JUMP JUMPDEST PUSH2 0x746 JUMP JUMPDEST STOP JUMPDEST PUSH1 0x1 DUP1 SLOAD PUSH2 0x17E SWAP2 SWAP1 PUSH2 0xED1 JUMP JUMPDEST PUSH1 0x1 DUP2 SWAP1 SSTORE POP PUSH1 0x0 DUP2 GT PUSH2 0x1C7 JUMPI PUSH1 0x40 MLOAD PUSH32 0x8C379A000000000000000000000000000000000000000000000000000000000 DUP2 MSTORE PUSH1 0x4 ADD PUSH2 0x1BE SWAP1 PUSH2 0xF62 JUMP JUMPDEST PUSH1 0x40 MLOAD DUP1 SWAP2 SUB SWAP1 REVERT JUMPDEST PUSH1 0x40 MLOAD DUP1 PUSH1 0x80 ADD PUSH1 0x40 MSTORE DUP1 PUSH1 0x1 SLOAD DUP2 MSTORE PUSH1 0x20 ADD DUP4 DUP2 MSTORE PUSH1 0x20 ADD DUP3 DUP2 MSTORE PUSH1 0x20 ADD PUSH1 0x0 PUSH1 0x2 DUP2 GT ISZERO PUSH2 0x1FA JUMPI PUSH2 0x1F9 PUSH2 0xBC6 JUMP JUMPDEST JUMPDEST DUP2 MSTORE POP PUSH1 0x0 DUP1 PUSH1 0x1 SLOAD DUP2 MSTORE PUSH1 0x20 ADD SWAP1 DUP2 MSTORE PUSH1 0x20 ADD PUSH1 0x0 KECCAK256 PUSH1 0x0 DUP3 ADD MLOAD DUP2 PUSH1 0x0 ADD SSTORE PUSH1 0x20 DUP3 ADD MLOAD DUP2 PUSH1 0x1 ADD SWAP1 DUP2 PUSH2 0x230 SWAP2 SWAP1 PUSH2 0x118E JUMP JUMPDEST POP PUSH1 0x40 DUP3 ADD MLOAD DUP2 PUSH1 0x2 ADD SSTORE PUSH1 0x60 DUP3 ADD MLOAD DUP2 PUSH1 0x3 ADD PUSH1 0x0 PUSH2 0x100 EXP DUP2 SLOAD DUP2 PUSH1 0xFF MUL NOT AND SWAP1 DUP4 PUSH1 0x2 DUP2 GT ISZERO PUSH2 0x266 JUMPI PUSH2 0x265 PUSH2 0xBC6 JUMP JUMPDEST JUMPDEST MUL OR SWAP1 SSTORE POP SWAP1 POP POP POP POP JUMP JUMPDEST PUSH1 0x0 DUP1 PUSH1 0x0 DUP5 DUP2 MSTORE PUSH1 0x20 ADD SWAP1 DUP2 MSTORE PUSH1 0x20 ADD PUSH1 0x0 KECCAK256 PUSH1 0x0 ADD SLOAD SUB PUSH2 0x2CA JUMPI PUSH1 0x40 MLOAD PUSH32 0x8C379A000000000000000000000000000000000000000000000000000000000 DUP2 MSTORE PUSH1 0x4 ADD PUSH2 0x2C1 SWAP1 PUSH2 0x12AC JUMP JUMPDEST PUSH1 0x40 MLOAD DUP1 SWAP2 SUB SWAP1 REVERT JUMPDEST DUP1 PUSH1 0x0 DUP1 DUP5 DUP2 MSTORE PUSH1 0x20 ADD SWAP1 DUP2 MSTORE PUSH1 0x20 ADD PUSH1 0x0 KECCAK256 PUSH1 0x3 ADD PUSH1 0x0 PUSH2 0x100 EXP DUP2 SLOAD DUP2 PUSH1 0xFF MUL NOT AND SWAP1 DUP4 PUSH1 0x2 DUP2 GT ISZERO PUSH2 0x302 JUMPI PUSH2 0x301 PUSH2 0xBC6 JUMP JUMPDEST JUMPDEST MUL OR SWAP1 SSTORE POP POP POP JUMP JUMPDEST PUSH2 0x313 PUSH2 0x823 JUMP JUMPDEST PUSH1 0x0 DUP1 PUSH1 0x0 DUP5 DUP2 MSTORE PUSH1 0x20 ADD SWAP1 DUP2 MSTORE PUSH1 0x20 ADD PUSH1 0x0 KECCAK256 PUSH1 0x0 ADD SLOAD SUB PUSH2 0x36B JUMPI PUSH1 0x40 MLOAD PUSH32 0x8C379A000000000000000000000000000000000000000000000000000000000 DUP2 MSTORE PUSH1 0x4 ADD PUSH2 0x362 SWAP1 PUSH2 0x12AC JUMP JUMPDEST PUSH1 0x40 MLOAD DUP1 SWAP2 SUB SWAP1 REVERT JUMPDEST PUSH1 0x0 DUP1 DUP4 DUP2 MSTORE PUSH1 0x20 ADD SWAP1 DUP2 MSTORE PUSH1 0x20 ADD PUSH1 0x0 KECCAK256 PUSH1 0x40 MLOAD DUP1 PUSH1 0x80 ADD PUSH1 0x40 MSTORE SWAP1 DUP2 PUSH1 0x0 DUP3 ADD SLOAD DUP2 MSTORE PUSH1 0x20 ADD PUSH1 0x1 DUP3 ADD DUP1 SLOAD PUSH2 0x3A2 SWAP1 PUSH2 0xFB1 JUMP JUMPDEST DUP1 PUSH1 0x1F ADD PUSH1 0x20 DUP1 SWAP2 DIV MUL PUSH1 0x20 ADD PUSH1 0x40 MLOAD SWAP1 DUP2 ADD PUSH1 0x40 MSTORE DUP1 SWAP3 SWAP2 SWAP1 DUP2 DUP2 MSTORE PUSH1 0x20 ADD DUP3 DUP1 SLOAD PUSH2 0x3CE SWAP1 PUSH2 0xFB1 JUMP JUMPDEST DUP1 ISZERO PUSH2 0x41B JUMPI DUP1 PUSH1 0x1F LT PUSH2 0x3F0 JUMPI PUSH2 0x100 DUP1 DUP4 SLOAD DIV MUL DUP4 MSTORE SWAP2 PUSH1 0x20 ADD SWAP2 PUSH2 0x41B JUMP JUMPDEST DUP3 ADD SWAP2 SWAP1 PUSH1 0x0 MSTORE PUSH1 0x20 PUSH1 0x0 KECCAK256 SWAP1 JUMPDEST DUP2 SLOAD DUP2 MSTORE SWAP1 PUSH1 0x1 ADD SWAP1 PUSH1 0x20 ADD DUP1 DUP4 GT PUSH2 0x3FE JUMPI DUP3 SWAP1 SUB PUSH1 0x1F AND DUP3 ADD SWAP2 JUMPDEST POP POP POP POP POP DUP2 MSTORE PUSH1 0x20 ADD PUSH1 0x2 DUP3 ADD SLOAD DUP2 MSTORE PUSH1 0x20 ADD PUSH1 0x3 DUP3 ADD PUSH1 0x0 SWAP1 SLOAD SWAP1 PUSH2 0x100 EXP SWAP1 DIV PUSH1 0xFF AND PUSH1 0x2 DUP2 GT ISZERO PUSH2 0x453 JUMPI PUSH2 0x452 PUSH2 0xBC6 JUMP JUMPDEST JUMPDEST PUSH1 0x2 DUP2 GT ISZERO PUSH2 0x465 JUMPI PUSH2 0x464 PUSH2 0xBC6 JUMP JUMPDEST JUMPDEST DUP2 MSTORE POP POP SWAP1 POP SWAP2 SWAP1 POP JUMP JUMPDEST PUSH1 0x0 DUP1 PUSH1 0x0 DUP4 DUP2 MSTORE PUSH1 0x20 ADD SWAP1 DUP2 MSTORE PUSH1 0x20 ADD PUSH1 0x0 KECCAK256 PUSH1 0x0 ADD SLOAD SUB PUSH2 0x4C8 JUMPI PUSH1 0x40 MLOAD PUSH32 0x8C379A000000000000000000000000000000000000000000000000000000000 DUP2 MSTORE PUSH1 0x4 ADD PUSH2 0x4BF SWAP1 PUSH2 0x12AC JUMP JUMPDEST PUSH1 0x40 MLOAD DUP1 SWAP2 SUB SWAP1 REVERT JUMPDEST PUSH1 0x0 DUP1 DUP3 DUP2 MSTORE PUSH1 0x20 ADD SWAP1 DUP2 MSTORE PUSH1 0x20 ADD PUSH1 0x0 KECCAK256 PUSH1 0x0 DUP1 DUP3 ADD PUSH1 0x0 SWAP1 SSTORE PUSH1 0x1 DUP3 ADD PUSH1 0x0 PUSH2 0x4F3 SWAP2 SWAP1 PUSH2 0x85D JUMP JUMPDEST PUSH1 0x2 DUP3 ADD PUSH1 0x0 SWAP1 SSTORE PUSH1 0x3 DUP3 ADD PUSH1 0x0 PUSH2 0x100 EXP DUP2 SLOAD SWAP1 PUSH1 0xFF MUL NOT AND SWAP1 SSTORE POP POP POP JUMP JUMPDEST PUSH1 0x0 DUP1 PUSH1 0x0 DUP1 DUP5 DUP2 MSTORE PUSH1 0x20 ADD SWAP1 DUP2 MSTORE PUSH1 0x20 ADD PUSH1 0x0 KECCAK256 PUSH1 0x0 ADD SLOAD SUB PUSH2 0x56D JUMPI PUSH1 0x40 MLOAD PUSH32 0x8C379A000000000000000000000000000000000000000000000000000000000 DUP2 MSTORE PUSH1 0x4 ADD PUSH2 0x564 SWAP1 PUSH2 0x12AC JUMP JUMPDEST PUSH1 0x40 MLOAD DUP1 SWAP2 SUB SWAP1 REVERT JUMPDEST PUSH1 0x0 DUP1 DUP4 DUP2 MSTORE PUSH1 0x20 ADD SWAP1 DUP2 MSTORE PUSH1 0x20 ADD PUSH1 0x0 KECCAK256 PUSH1 0x3 ADD PUSH1 0x0 SWAP1 SLOAD SWAP1 PUSH2 0x100 EXP SWAP1 DIV PUSH1 0xFF AND SWAP1 POP SWAP2 SWAP1 POP JUMP JUMPDEST PUSH1 0x60 PUSH1 0x0 PUSH1 0x1 SLOAD PUSH8 0xFFFFFFFFFFFFFFFF DUP2 GT ISZERO PUSH2 0x5B7 JUMPI PUSH2 0x5B6 PUSH2 0x8E9 JUMP JUMPDEST JUMPDEST PUSH1 0x40 MLOAD SWAP1 DUP1 DUP3 MSTORE DUP1 PUSH1 0x20 MUL PUSH1 0x20 ADD DUP3 ADD PUSH1 0x40 MSTORE DUP1 ISZERO PUSH2 0x5F0 JUMPI DUP2 PUSH1 0x20 ADD JUMPDEST PUSH2 0x5DD PUSH2 0x823 JUMP JUMPDEST DUP2 MSTORE PUSH1 0x20 ADD SWAP1 PUSH1 0x1 SWAP1 SUB SWAP1 DUP2 PUSH2 0x5D5 JUMPI SWAP1 POP JUMPDEST POP SWAP1 POP PUSH1 0x0 PUSH1 0x1 SWAP1 POP JUMPDEST PUSH1 0x1 SLOAD DUP2 GT PUSH2 0x73E JUMPI PUSH1 0x0 DUP1 DUP3 DUP2 MSTORE PUSH1 0x20 ADD SWAP1 DUP2 MSTORE PUSH1 0x20 ADD PUSH1 0x0 KECCAK256 PUSH1 0x40 MLOAD DUP1 PUSH1 0x80 ADD PUSH1 0x40 MSTORE SWAP1 DUP2 PUSH1 0x0 DUP3 ADD SLOAD DUP2 MSTORE PUSH1 0x20 ADD PUSH1 0x1 DUP3 ADD DUP1 SLOAD PUSH2 0x63A SWAP1 PUSH2 0xFB1 JUMP JUMPDEST DUP1 PUSH1 0x1F ADD PUSH1 0x20 DUP1 SWAP2 DIV MUL PUSH1 0x20 ADD PUSH1 0x40 MLOAD SWAP1 DUP2 ADD PUSH1 0x40 MSTORE DUP1 SWAP3 SWAP2 SWAP1 DUP2 DUP2 MSTORE PUSH1 0x20 ADD DUP3 DUP1 SLOAD PUSH2 0x666 SWAP1 PUSH2 0xFB1 JUMP JUMPDEST DUP1 ISZERO PUSH2 0x6B3 JUMPI DUP1 PUSH1 0x1F LT PUSH2 0x688 JUMPI PUSH2 0x100 DUP1 DUP4 SLOAD DIV MUL DUP4 MSTORE SWAP2 PUSH1 0x20 ADD SWAP2 PUSH2 0x6B3 JUMP JUMPDEST DUP3 ADD SWAP2 SWAP1 PUSH1 0x0 MSTORE PUSH1 0x20 PUSH1 0x0 KECCAK256 SWAP1 JUMPDEST DUP2 SLOAD DUP2 MSTORE SWAP1 PUSH1 0x1 ADD SWAP1 PUSH1 0x20 ADD DUP1 DUP4 GT PUSH2 0x696 JUMPI DUP3 SWAP1 SUB PUSH1 0x1F AND DUP3 ADD SWAP2 JUMPDEST POP POP POP POP POP DUP2 MSTORE PUSH1 0x20 ADD PUSH1 0x2 DUP3 ADD SLOAD DUP2 MSTORE PUSH1 0x20 ADD PUSH1 0x3 DUP3 ADD PUSH1 0x0 SWAP1 SLOAD SWAP1 PUSH2 0x100 EXP SWAP1 DIV PUSH1 0xFF AND PUSH1 0x2 DUP2 GT ISZERO PUSH2 0x6EB JUMPI PUSH2 0x6EA PUSH2 0xBC6 JUMP JUMPDEST JUMPDEST PUSH1 0x2 DUP2 GT ISZERO PUSH2 0x6FD JUMPI PUSH2 0x6FC PUSH2 0xBC6 JUMP JUMPDEST JUMPDEST DUP2 MSTORE POP POP DUP3 PUSH1 0x1 DUP4 PUSH2 0x70F SWAP2 SWAP1 PUSH2 0x12CC JUMP JUMPDEST DUP2 MLOAD DUP2 LT PUSH2 0x720 JUMPI PUSH2 0x71F PUSH2 0x1300 JUMP JUMPDEST JUMPDEST PUSH1 0x20 MUL PUSH1 0x20 ADD ADD DUP2 SWAP1 MSTORE POP DUP1 DUP1 PUSH2 0x736 SWAP1 PUSH2 0x132F JUMP JUMPDEST SWAP2 POP POP PUSH2 0x5FA JUMP JUMPDEST POP DUP1 SWAP2 POP POP SWAP1 JUMP JUMPDEST PUSH1 0x0 DUP2 GT PUSH2 0x789 JUMPI PUSH1 0x40 MLOAD PUSH32 0x8C379A000000000000000000000000000000000000000000000000000000000 DUP2 MSTORE PUSH1 0x4 ADD PUSH2 0x780 SWAP1 PUSH2 0xF62 JUMP JUMPDEST PUSH1 0x40 MLOAD DUP1 SWAP2 SUB SWAP1 REVERT JUMPDEST PUSH1 0x0 DUP1 PUSH1 0x0 DUP6 DUP2 MSTORE PUSH1 0x20 ADD SWAP1 DUP2 MSTORE PUSH1 0x20 ADD PUSH1 0x0 KECCAK256 PUSH1 0x0 ADD SLOAD SUB PUSH2 0x7E1 JUMPI PUSH1 0x40 MLOAD PUSH32 0x8C379A000000000000000000000000000000000000000000000000000000000 DUP2 MSTORE PUSH1 0x4 ADD PUSH2 0x7D8 SWAP1 PUSH2 0x12AC JUMP JUMPDEST PUSH1 0x40 MLOAD DUP1 SWAP2 SUB SWAP1 REVERT JUMPDEST DUP2 PUSH1 0x0 DUP1 DUP6 DUP2 MSTORE PUSH1 0x20 ADD SWAP1 DUP2 MSTORE PUSH1 0x20 ADD PUSH1 0x0 KECCAK256 PUSH1 0x1 ADD SWAP1 DUP2 PUSH2 0x803 SWAP2 SWAP1 PUSH2 0x118E JUMP JUMPDEST POP DUP1 PUSH1 0x0 DUP1 DUP6 DUP2 MSTORE PUSH1 0x20 ADD SWAP1 DUP2 MSTORE PUSH1 0x20 ADD PUSH1 0x0 KECCAK256 PUSH1 0x2 ADD DUP2 SWAP1 SSTORE POP POP POP POP JUMP JUMPDEST PUSH1 0x40 MLOAD DUP1 PUSH1 0x80 ADD PUSH1 0x40 MSTORE DUP1 PUSH1 0x0 DUP2 MSTORE PUSH1 0x20 ADD PUSH1 0x60 DUP2 MSTORE PUSH1 0x20 ADD PUSH1 0x0 DUP2 MSTORE PUSH1 0x20 ADD PUSH1 0x0 PUSH1 0x2 DUP2 GT ISZERO PUSH2 0x857 JUMPI PUSH2 0x856 PUSH2 0xBC6 JUMP JUMPDEST JUMPDEST DUP2 MSTORE POP SWAP1 JUMP JUMPDEST POP DUP1 SLOAD PUSH2 0x869 SWAP1 PUSH2 0xFB1 JUMP JUMPDEST PUSH1 0x0 DUP3 SSTORE DUP1 PUSH1 0x1F LT PUSH2 0x87B JUMPI POP PUSH2 0x89A JUMP JUMPDEST PUSH1 0x1F ADD PUSH1 0x20 SWAP1 DIV SWAP1 PUSH1 0x0 MSTORE PUSH1 0x20 PUSH1 0x0 KECCAK256 SWAP1 DUP2 ADD SWAP1 PUSH2 0x899 SWAP2 SWAP1 PUSH2 0x89D JUMP JUMPDEST JUMPDEST POP JUMP JUMPDEST JUMPDEST DUP1 DUP3 GT ISZERO PUSH2 0x8B6 JUMPI PUSH1 0x0 DUP2 PUSH1 0x0 SWAP1 SSTORE POP PUSH1 0x1 ADD PUSH2 0x89E JUMP JUMPDEST POP SWAP1 JUMP JUMPDEST PUSH1 0x0 PUSH1 0x40 MLOAD SWAP1 POP SWAP1 JUMP JUMPDEST PUSH1 0x0 DUP1 REVERT JUMPDEST PUSH1 0x0 DUP1 REVERT JUMPDEST PUSH1 0x0 DUP1 REVERT JUMPDEST PUSH1 0x0 DUP1 REVERT JUMPDEST PUSH1 0x0 PUSH1 0x1F NOT PUSH1 0x1F DUP4 ADD AND SWAP1 POP SWAP2 SWAP1 POP JUMP JUMPDEST PUSH32 0x4E487B7100000000000000000000000000000000000000000000000000000000 PUSH1 0x0 MSTORE PUSH1 0x41 PUSH1 0x4 MSTORE PUSH1 0x24 PUSH1 0x0 REVERT JUMPDEST PUSH2 0x921 DUP3 PUSH2 0x8D8 JUMP JUMPDEST DUP2 ADD DUP2 DUP2 LT PUSH8 0xFFFFFFFFFFFFFFFF DUP3 GT OR ISZERO PUSH2 0x940 JUMPI PUSH2 0x93F PUSH2 0x8E9 JUMP JUMPDEST JUMPDEST DUP1 PUSH1 0x40 MSTORE POP POP POP JUMP JUMPDEST PUSH1 0x0 PUSH2 0x953 PUSH2 0x8BA JUMP JUMPDEST SWAP1 POP PUSH2 0x95F DUP3 DUP3 PUSH2 0x918 JUMP JUMPDEST SWAP2 SWAP1 POP JUMP JUMPDEST PUSH1 0x0 PUSH8 0xFFFFFFFFFFFFFFFF DUP3 GT ISZERO PUSH2 0x97F JUMPI PUSH2 0x97E PUSH2 0x8E9 JUMP JUMPDEST JUMPDEST PUSH2 0x988 DUP3 PUSH2 0x8D8 JUMP JUMPDEST SWAP1 POP PUSH1 0x20 DUP2 ADD SWAP1 POP SWAP2 SWAP1 POP JUMP JUMPDEST DUP3 DUP2 DUP4 CALLDATACOPY PUSH1 0x0 DUP4 DUP4 ADD MSTORE POP POP POP JUMP JUMPDEST PUSH1 0x0 PUSH2 0x9B7 PUSH2 0x9B2 DUP5 PUSH2 0x964 JUMP JUMPDEST PUSH2 0x949 JUMP JUMPDEST SWAP1 POP DUP3 DUP2 MSTORE PUSH1 0x20 DUP2 ADD DUP5 DUP5 DUP5 ADD GT ISZERO PUSH2 0x9D3 JUMPI PUSH2 0x9D2 PUSH2 0x8D3 JUMP JUMPDEST JUMPDEST PUSH2 0x9DE DUP5 DUP3 DUP6 PUSH2 0x995 JUMP JUMPDEST POP SWAP4 SWAP3 POP POP POP JUMP JUMPDEST PUSH1 0x0 DUP3 PUSH1 0x1F DUP4 ADD SLT PUSH2 0x9FB JUMPI PUSH2 0x9FA PUSH2 0x8CE JUMP JUMPDEST JUMPDEST DUP2 CALLDATALOAD PUSH2 0xA0B DUP5 DUP3 PUSH1 0x20 DUP7 ADD PUSH2 0x9A4 JUMP JUMPDEST SWAP2 POP POP SWAP3 SWAP2 POP POP JUMP JUMPDEST PUSH1 0x0 DUP2 SWAP1 POP SWAP2 SWAP1 POP JUMP JUMPDEST PUSH2 0xA27 DUP2 PUSH2 0xA14 JUMP JUMPDEST DUP2 EQ PUSH2 0xA32 JUMPI PUSH1 0x0 DUP1 REVERT JUMPDEST POP JUMP JUMPDEST PUSH1 0x0 DUP2 CALLDATALOAD SWAP1 POP PUSH2 0xA44 DUP2 PUSH2 0xA1E JUMP JUMPDEST SWAP3 SWAP2 POP POP JUMP JUMPDEST PUSH1 0x0 DUP1 PUSH1 0x40 DUP4 DUP6 SUB SLT ISZERO PUSH2 0xA61 JUMPI PUSH2 0xA60 PUSH2 0x8C4 JUMP JUMPDEST JUMPDEST PUSH1 0x0 DUP4 ADD CALLDATALOAD PUSH8 0xFFFFFFFFFFFFFFFF DUP2 GT ISZERO PUSH2 0xA7F JUMPI PUSH2 0xA7E PUSH2 0x8C9 JUMP JUMPDEST JUMPDEST PUSH2 0xA8B DUP6 DUP3 DUP7 ADD PUSH2 0x9E6 JUMP JUMPDEST SWAP3 POP POP PUSH1 0x20 PUSH2 0xA9C DUP6 DUP3 DUP7 ADD PUSH2 0xA35 JUMP JUMPDEST SWAP2 POP POP SWAP3 POP SWAP3 SWAP1 POP JUMP JUMPDEST PUSH1 0x3 DUP2 LT PUSH2 0xAB3 JUMPI PUSH1 0x0 DUP1 REVERT JUMPDEST POP JUMP JUMPDEST PUSH1 0x0 DUP2 CALLDATALOAD SWAP1 POP PUSH2 0xAC5 DUP2 PUSH2 0xAA6 JUMP JUMPDEST SWAP3 SWAP2 POP POP JUMP JUMPDEST PUSH1 0x0 DUP1 PUSH1 0x40 DUP4 DUP6 SUB SLT ISZERO PUSH2 0xAE2 JUMPI PUSH2 0xAE1 PUSH2 0x8C4 JUMP JUMPDEST JUMPDEST PUSH1 0x0 PUSH2 0xAF0 DUP6 DUP3 DUP7 ADD PUSH2 0xA35 JUMP JUMPDEST SWAP3 POP POP PUSH1 0x20 PUSH2 0xB01 DUP6 DUP3 DUP7 ADD PUSH2 0xAB6 JUMP JUMPDEST SWAP2 POP POP SWAP3 POP SWAP3 SWAP1 POP JUMP JUMPDEST PUSH1 0x0 PUSH1 0x20 DUP3 DUP5 SUB SLT ISZERO PUSH2 0xB21 JUMPI PUSH2 0xB20 PUSH2 0x8C4 JUMP JUMPDEST JUMPDEST PUSH1 0x0 PUSH2 0xB2F DUP5 DUP3 DUP6 ADD PUSH2 0xA35 JUMP JUMPDEST SWAP2 POP POP SWAP3 SWAP2 POP POP JUMP JUMPDEST PUSH2 0xB41 DUP2 PUSH2 0xA14 JUMP JUMPDEST DUP3 MSTORE POP POP JUMP JUMPDEST PUSH1 0x0 DUP2 MLOAD SWAP1 POP SWAP2 SWAP1 POP JUMP JUMPDEST PUSH1 0x0 DUP3 DUP3 MSTORE PUSH1 0x20 DUP3 ADD SWAP1 POP SWAP3 SWAP2 POP POP JUMP JUMPDEST PUSH1 0x0 JUMPDEST DUP4 DUP2 LT ISZERO PUSH2 0xB81 JUMPI DUP1 DUP3 ADD MLOAD DUP2 DUP5 ADD MSTORE PUSH1 0x20 DUP2 ADD SWAP1 POP PUSH2 0xB66 JUMP JUMPDEST PUSH1 0x0 DUP5 DUP5 ADD MSTORE POP POP POP POP JUMP JUMPDEST PUSH1 0x0 PUSH2 0xB98 DUP3 PUSH2 0xB47 JUMP JUMPDEST PUSH2 0xBA2 DUP2 DUP6 PUSH2 0xB52 JUMP JUMPDEST SWAP4 POP PUSH2 0xBB2 DUP2 DUP6 PUSH1 0x20 DUP7 ADD PUSH2 0xB63 JUMP JUMPDEST PUSH2 0xBBB DUP2 PUSH2 0x8D8 JUMP JUMPDEST DUP5 ADD SWAP2 POP POP SWAP3 SWAP2 POP POP JUMP JUMPDEST PUSH32 0x4E487B7100000000000000000000000000000000000000000000000000000000 PUSH1 0x0 MSTORE PUSH1 0x21 PUSH1 0x4 MSTORE PUSH1 0x24 PUSH1 0x0 REVERT JUMPDEST PUSH1 0x3 DUP2 LT PUSH2 0xC06 JUMPI PUSH2 0xC05 PUSH2 0xBC6 JUMP JUMPDEST JUMPDEST POP JUMP JUMPDEST PUSH1 0x0 DUP2 SWAP1 POP PUSH2 0xC17 DUP3 PUSH2 0xBF5 JUMP JUMPDEST SWAP2 SWAP1 POP JUMP JUMPDEST PUSH1 0x0 PUSH2 0xC27 DUP3 PUSH2 0xC09 JUMP JUMPDEST SWAP1 POP SWAP2 SWAP1 POP JUMP JUMPDEST PUSH2 0xC37 DUP2 PUSH2 0xC1C JUMP JUMPDEST DUP3 MSTORE POP POP JUMP JUMPDEST PUSH1 0x0 PUSH1 0x80 DUP4 ADD PUSH1 0x0 DUP4 ADD MLOAD PUSH2 0xC55 PUSH1 0x0 DUP7 ADD DUP3 PUSH2 0xB38 JUMP JUMPDEST POP PUSH1 0x20 DUP4 ADD MLOAD DUP5 DUP3 SUB PUSH1 0x20 DUP7 ADD MSTORE PUSH2 0xC6D DUP3 DUP3 PUSH2 0xB8D JUMP JUMPDEST SWAP2 POP POP PUSH1 0x40 DUP4 ADD MLOAD PUSH2 0xC82 PUSH1 0x40 DUP7 ADD DUP3 PUSH2 0xB38 JUMP JUMPDEST POP PUSH1 0x60 DUP4 ADD MLOAD PUSH2 0xC95 PUSH1 0x60 DUP7 ADD DUP3 PUSH2 0xC2E JUMP JUMPDEST POP DUP1 SWAP2 POP POP SWAP3 SWAP2 POP POP JUMP JUMPDEST PUSH1 0x0 PUSH1 0x20 DUP3 ADD SWAP1 POP DUP2 DUP2 SUB PUSH1 0x0 DUP4 ADD MSTORE PUSH2 0xCBA DUP2 DUP5 PUSH2 0xC3D JUMP JUMPDEST SWAP1 POP SWAP3 SWAP2 POP POP JUMP JUMPDEST PUSH2 0xCCB DUP2 PUSH2 0xC1C JUMP JUMPDEST DUP3 MSTORE POP POP JUMP JUMPDEST PUSH1 0x0 PUSH1 0x20 DUP3 ADD SWAP1 POP PUSH2 0xCE6 PUSH1 0x0 DUP4 ADD DUP5 PUSH2 0xCC2 JUMP JUMPDEST SWAP3 SWAP2 POP POP JUMP JUMPDEST PUSH1 0x0 DUP2 MLOAD SWAP1 POP SWAP2 SWAP1 POP JUMP JUMPDEST PUSH1 0x0 DUP3 DUP3 MSTORE PUSH1 0x20 DUP3 ADD SWAP1 POP SWAP3 SWAP2 POP POP JUMP JUMPDEST PUSH1 0x0 DUP2 SWAP1 POP PUSH1 0x20 DUP3 ADD SWAP1 POP SWAP2 SWAP1 POP JUMP JUMPDEST PUSH1 0x0 PUSH1 0x80 DUP4 ADD PUSH1 0x0 DUP4 ADD MLOAD PUSH2 0xD30 PUSH1 0x0 DUP7 ADD DUP3 PUSH2 0xB38 JUMP JUMPDEST POP PUSH1 0x20 DUP4 ADD MLOAD DUP5 DUP3 SUB PUSH1 0x20 DUP7 ADD MSTORE PUSH2 0xD48 DUP3 DUP3 PUSH2 0xB8D JUMP JUMPDEST SWAP2 POP POP PUSH1 0x40 DUP4 ADD MLOAD PUSH2 0xD5D PUSH1 0x40 DUP7 ADD DUP3 PUSH2 0xB38 JUMP JUMPDEST POP PUSH1 0x60 DUP4 ADD MLOAD PUSH2 0xD70 PUSH1 0x60 DUP7 ADD DUP3 PUSH2 0xC2E JUMP JUMPDEST POP DUP1 SWAP2 POP POP SWAP3 SWAP2 POP POP JUMP JUMPDEST PUSH1 0x0 PUSH2 0xD87 DUP4 DUP4 PUSH2 0xD18 JUMP JUMPDEST SWAP1 POP SWAP3 SWAP2 POP POP JUMP JUMPDEST PUSH1 0x0 PUSH1 0x20 DUP3 ADD SWAP1 POP SWAP2 SWAP1 POP JUMP JUMPDEST PUSH1 0x0 PUSH2 0xDA7 DUP3 PUSH2 0xCEC JUMP JUMPDEST PUSH2 0xDB1 DUP2 DUP6 PUSH2 0xCF7 JUMP JUMPDEST SWAP4 POP DUP4 PUSH1 0x20 DUP3 MUL DUP6 ADD PUSH2 0xDC3 DUP6 PUSH2 0xD08 JUMP JUMPDEST DUP1 PUSH1 0x0 JUMPDEST DUP6 DUP2 LT ISZERO PUSH2 0xDFF JUMPI DUP5 DUP5 SUB DUP10 MSTORE DUP2 MLOAD PUSH2 0xDE0 DUP6 DUP3 PUSH2 0xD7B JUMP JUMPDEST SWAP5 POP PUSH2 0xDEB DUP4 PUSH2 0xD8F JUMP JUMPDEST SWAP3 POP PUSH1 0x20 DUP11 ADD SWAP10 POP POP PUSH1 0x1 DUP2 ADD SWAP1 POP PUSH2 0xDC7 JUMP JUMPDEST POP DUP3 SWAP8 POP DUP8 SWAP6 POP POP POP POP POP POP SWAP3 SWAP2 POP POP JUMP JUMPDEST PUSH1 0x0 PUSH1 0x20 DUP3 ADD SWAP1 POP DUP2 DUP2 SUB PUSH1 0x0 DUP4 ADD MSTORE PUSH2 0xE2B DUP2 DUP5 PUSH2 0xD9C JUMP JUMPDEST SWAP1 POP SWAP3 SWAP2 POP POP JUMP JUMPDEST PUSH1 0x0 DUP1 PUSH1 0x0 PUSH1 0x60 DUP5 DUP7 SUB SLT ISZERO PUSH2 0xE4C JUMPI PUSH2 0xE4B PUSH2 0x8C4 JUMP JUMPDEST JUMPDEST PUSH1 0x0 PUSH2 0xE5A DUP7 DUP3 DUP8 ADD PUSH2 0xA35 JUMP JUMPDEST SWAP4 POP POP PUSH1 0x20 DUP5 ADD CALLDATALOAD PUSH8 0xFFFFFFFFFFFFFFFF DUP2 GT ISZERO PUSH2 0xE7B JUMPI PUSH2 0xE7A PUSH2 0x8C9 JUMP JUMPDEST JUMPDEST PUSH2 0xE87 DUP7 DUP3 DUP8 ADD PUSH2 0x9E6 JUMP JUMPDEST SWAP3 POP POP PUSH1 0x40 PUSH2 0xE98 DUP7 DUP3 DUP8 ADD PUSH2 0xA35 JUMP JUMPDEST SWAP2 POP POP SWAP3 POP SWAP3 POP SWAP3 JUMP JUMPDEST PUSH32 0x4E487B7100000000000000000000000000000000000000000000000000000000 PUSH1 0x0 MSTORE PUSH1 0x11 PUSH1 0x4 MSTORE PUSH1 0x24 PUSH1 0x0 REVERT JUMPDEST PUSH1 0x0 PUSH2 0xEDC DUP3 PUSH2 0xA14 JUMP JUMPDEST SWAP2 POP PUSH2 0xEE7 DUP4 PUSH2 0xA14 JUMP JUMPDEST SWAP3 POP DUP3 DUP3 ADD SWAP1 POP DUP1 DUP3 GT ISZERO PUSH2 0xEFF JUMPI PUSH2 0xEFE PUSH2 0xEA2 JUMP JUMPDEST JUMPDEST SWAP3 SWAP2 POP POP JUMP JUMPDEST PUSH1 0x0 DUP3 DUP3 MSTORE PUSH1 0x20 DUP3 ADD SWAP1 POP SWAP3 SWAP2 POP POP JUMP JUMPDEST PUSH32 0x416765206D7573742062652067726561746572207468616E2030000000000000 PUSH1 0x0 DUP3 ADD MSTORE POP JUMP JUMPDEST PUSH1 0x0 PUSH2 0xF4C PUSH1 0x1A DUP4 PUSH2 0xF05 JUMP JUMPDEST SWAP2 POP PUSH2 0xF57 DUP3 PUSH2 0xF16 JUMP JUMPDEST PUSH1 0x20 DUP3 ADD SWAP1 POP SWAP2 SWAP1 POP JUMP JUMPDEST PUSH1 0x0 PUSH1 0x20 DUP3 ADD SWAP1 POP DUP2 DUP2 SUB PUSH1 0x0 DUP4 ADD MSTORE PUSH2 0xF7B DUP2 PUSH2 0xF3F JUMP JUMPDEST SWAP1 POP SWAP2 SWAP1 POP JUMP JUMPDEST PUSH32 0x4E487B7100000000000000000000000000000000000000000000000000000000 PUSH1 0x0 MSTORE PUSH1 0x22 PUSH1 0x4 MSTORE PUSH1 0x24 PUSH1 0x0 REVERT JUMPDEST PUSH1 0x0 PUSH1 0x2 DUP3 DIV SWAP1 POP PUSH1 0x1 DUP3 AND DUP1 PUSH2 0xFC9 JUMPI PUSH1 0x7F DUP3 AND SWAP2 POP JUMPDEST PUSH1 0x20 DUP3 LT DUP2 SUB PUSH2 0xFDC JUMPI PUSH2 0xFDB PUSH2 0xF82 JUMP JUMPDEST JUMPDEST POP SWAP2 SWAP1 POP JUMP JUMPDEST PUSH1 0x0 DUP2 SWAP1 POP DUP2 PUSH1 0x0 MSTORE PUSH1 0x20 PUSH1 0x0 KECCAK256 SWAP1 POP SWAP2 SWAP1 POP JUMP JUMPDEST PUSH1 0x0 PUSH1 0x20 PUSH1 0x1F DUP4 ADD DIV SWAP1 POP SWAP2 SWAP1 POP JUMP JUMPDEST PUSH1 0x0 DUP3 DUP3 SHL SWAP1 POP SWAP3 SWAP2 POP POP JUMP JUMPDEST PUSH1 0x0 PUSH1 0x8 DUP4 MUL PUSH2 0x1044 PUSH32 0xFFFFFFFFFFFFFFFFFFFFFFFFFFFFFFFFFFFFFFFFFFFFFFFFFFFFFFFFFFFFFFFF DUP3 PUSH2 0x1007 JUMP JUMPDEST PUSH2 0x104E DUP7 DUP4 PUSH2 0x1007 JUMP JUMPDEST SWAP6 POP DUP1 NOT DUP5 AND SWAP4 POP DUP1 DUP7 AND DUP5 OR SWAP3 POP POP POP SWAP4 SWAP3 POP POP POP JUMP JUMPDEST PUSH1 0x0 DUP2 SWAP1 POP SWAP2 SWAP1 POP JUMP JUMPDEST PUSH1 0x0 PUSH2 0x108B PUSH2 0x1086 PUSH2 0x1081 DUP5 PUSH2 0xA14 JUMP JUMPDEST PUSH2 0x1066 JUMP JUMPDEST PUSH2 0xA14 JUMP JUMPDEST SWAP1 POP SWAP2 SWAP1 POP JUMP JUMPDEST PUSH1 0x0 DUP2 SWAP1 POP SWAP2 SWAP1 POP JUMP JUMPDEST PUSH2 0x10A5 DUP4 PUSH2 0x1070 JUMP JUMPDEST PUSH2 0x10B9 PUSH2 0x10B1 DUP3 PUSH2 0x1092 JUMP JUMPDEST DUP5 DUP5 SLOAD PUSH2 0x1014 JUMP JUMPDEST DUP3 SSTORE POP POP POP POP JUMP JUMPDEST PUSH1 0x0 SWAP1 JUMP JUMPDEST PUSH2 0x10CE PUSH2 0x10C1 JUMP JUMPDEST PUSH2 0x10D9 DUP2 DUP5 DUP5 PUSH2 0x109C JUMP JUMPDEST POP POP POP JUMP JUMPDEST JUMPDEST DUP2 DUP2 LT ISZERO PUSH2 0x10FD JUMPI PUSH2 0x10F2 PUSH1 0x0 DUP3 PUSH2 0x10C6 JUMP JUMPDEST PUSH1 0x1 DUP2 ADD SWAP1 POP PUSH2 0x10DF JUMP JUMPDEST POP POP JUMP JUMPDEST PUSH1 0x1F DUP3 GT ISZERO PUSH2 0x1142 JUMPI PUSH2 0x1113 DUP2 PUSH2 0xFE2 JUMP JUMPDEST PUSH2 0x111C DUP5 PUSH2 0xFF7 JUMP JUMPDEST DUP2 ADD PUSH1 0x20 DUP6 LT ISZERO PUSH2 0x112B JUMPI DUP2 SWAP1 POP JUMPDEST PUSH2 0x113F PUSH2 0x1137 DUP6 PUSH2 0xFF7 JUMP JUMPDEST DUP4 ADD DUP3 PUSH2 0x10DE JUMP JUMPDEST POP POP JUMPDEST POP POP POP JUMP JUMPDEST PUSH1 0x0 DUP3 DUP3 SHR SWAP1 POP SWAP3 SWAP2 POP POP JUMP JUMPDEST PUSH1 0x0 PUSH2 0x1165 PUSH1 0x0 NOT DUP5 PUSH1 0x8 MUL PUSH2 0x1147 JUMP JUMPDEST NOT DUP1 DUP4 AND SWAP2 POP POP SWAP3 SWAP2 POP POP JUMP JUMPDEST PUSH1 0x0 PUSH2 0x117E DUP4 DUP4 PUSH2 0x1154 JUMP JUMPDEST SWAP2 POP DUP3 PUSH1 0x2 MUL DUP3 OR SWAP1 POP SWAP3 SWAP2 POP POP JUMP JUMPDEST PUSH2 0x1197 DUP3 PUSH2 0xB47 JUMP JUMPDEST PUSH8 0xFFFFFFFFFFFFFFFF DUP2 GT ISZERO PUSH2 0x11B0 JUMPI PUSH2 0x11AF PUSH2 0x8E9 JUMP JUMPDEST JUMPDEST PUSH2 0x11BA DUP3 SLOAD PUSH2 0xFB1 JUMP JUMPDEST PUSH2 0x11C5 DUP3 DUP3 DUP6 PUSH2 0x1101 JUMP JUMPDEST PUSH1 0x0 PUSH1 0x20 SWAP1 POP PUSH1 0x1F DUP4 GT PUSH1 0x1 DUP2 EQ PUSH2 0x11F8 JUMPI PUSH1 0x0 DUP5 ISZERO PUSH2 0x11E6 JUMPI DUP3 DUP8 ADD MLOAD SWAP1 POP JUMPDEST PUSH2 0x11F0 DUP6 DUP3 PUSH2 0x1172 JUMP JUMPDEST DUP7 SSTORE POP PUSH2 0x1258 JUMP JUMPDEST PUSH1 0x1F NOT DUP5 AND PUSH2 0x1206 DUP7 PUSH2 0xFE2 JUMP JUMPDEST PUSH1 0x0 JUMPDEST DUP3 DUP2 LT ISZERO PUSH2 0x122E JUMPI DUP5 DUP10 ADD MLOAD DUP3 SSTORE PUSH1 0x1 DUP3 ADD SWAP2 POP PUSH1 0x20 DUP6 ADD SWAP5 POP PUSH1 0x20 DUP2 ADD SWAP1 POP PUSH2 0x1209 JUMP JUMPDEST DUP7 DUP4 LT ISZERO PUSH2 0x124B JUMPI DUP5 DUP10 ADD MLOAD PUSH2 0x1247 PUSH1 0x1F DUP10 AND DUP3 PUSH2 0x1154 JUMP JUMPDEST DUP4 SSTORE POP JUMPDEST PUSH1 0x1 PUSH1 0x2 DUP9 MUL ADD DUP9 SSTORE POP POP POP JUMPDEST POP POP POP POP POP POP JUMP JUMPDEST PUSH32 0x53747564656E74206E6F7420666F756E64000000000000000000000000000000 PUSH1 0x0 DUP3 ADD MSTORE POP JUMP JUMPDEST PUSH1 0x0 PUSH2 0x1296 PUSH1 0x11 DUP4 PUSH2 0xF05 JUMP JUMPDEST SWAP2 POP PUSH2 0x12A1 DUP3 PUSH2 0x1260 JUMP JUMPDEST PUSH1 0x20 DUP3 ADD SWAP1 POP SWAP2 SWAP1 POP JUMP JUMPDEST PUSH1 0x0 PUSH1 0x20 DUP3 ADD SWAP1 POP DUP2 DUP2 SUB PUSH1 0x0 DUP4 ADD MSTORE PUSH2 0x12C5 DUP2 PUSH2 0x1289 JUMP JUMPDEST SWAP1 POP SWAP2 SWAP1 POP JUMP JUMPDEST PUSH1 0x0 PUSH2 0x12D7 DUP3 PUSH2 0xA14 JUMP JUMPDEST SWAP2 POP PUSH2 0x12E2 DUP4 PUSH2 0xA14 JUMP JUMPDEST SWAP3 POP DUP3 DUP3 SUB SWAP1 POP DUP2 DUP2 GT ISZERO PUSH2 0x12FA JUMPI PUSH2 0x12F9 PUSH2 0xEA2 JUMP JUMPDEST JUMPDEST SWAP3 SWAP2 POP POP JUMP JUMPDEST PUSH32 0x4E487B7100000000000000000000000000000000000000000000000000000000 PUSH1 0x0 MSTORE PUSH1 0x32 PUSH1 0x4 MSTORE PUSH1 0x24 PUSH1 0x0 REVERT JUMPDEST PUSH1 0x0 PUSH2 0x133A DUP3 PUSH2 0xA14 JUMP JUMPDEST SWAP2 POP PUSH32 0xFFFFFFFFFFFFFFFFFFFFFFFFFFFFFFFFFFFFFFFFFFFFFFFFFFFFFFFFFFFFFFFF DUP3 SUB PUSH2 0x136C JUMPI PUSH2 0x136B PUSH2 0xEA2 JUMP JUMPDEST JUMPDEST PUSH1 0x1 DUP3 ADD SWAP1 POP SWAP2 SWAP1 POP JUMP INVALID LOG2 PUSH5 0x6970667358 0x22 SLT KECCAK256 SELFBALANCE SAR PUSH16 0xCBE07A612B1D9375CA32BDE77D5DE690 0xE0 0x4B MULMOD 0xAB 0x21 SWAP1 0xD9 0xC2 0xB7 0xEB CALLDATALOAD SELFDESTRUCT 0xB6 PUSH5 0x736F6C6343 STOP ADDMOD SHR STOP CALLER "
        },
        "methodIdentifiers": {
          "deleteStudent(uint256)": "b645307d",
          "getAllStudents()": "e9e30927",
          "getStudent(uint256)": "642f9163",
          "getStudentStatus(uint256)": "baea3776",
          "registerStudent(string,uint256)": "12a0b744",
          "setStudentStatus(uint256,uint8)": "42fe1f58",
          "updateStudent(uint256,string,uint256)": "ec7505b1"
        }
      }
    }
  }
}