{
    "contractName": "EventTicketing",
    "abi": [
        {
            "inputs": [
                {
                    "internalType": "uint256",
                    "name": "initialSupply",
                    "type": "uint256"
                }
            ],
            "stateMutability": "nonpayable",
            "type": "constructor"
        },
        {
            "anonymous": false,
            "inputs": [
                {
                    "indexed": true,
                    "internalType": "uint256",
                    "name": "ticketId",
                    "type": "uint256"
                },
                {
                    "indexed": false,
                    "internalType": "address",
                    "name": "ticketToken",
                    "type": "address"
                },
                {
                    "indexed": false,
                    "internalType": "address",
                    "name": "ticketNft",
                    "type": "address"
                },
                {
                    "indexed": false,
                    "internalType": "uint256",
                    "name": "ticketPrice",
                    "type": "uint256"
                },
                {
                    "indexed": false,
                    "internalType": "uint256",
                    "name": "ticketSupply",
                    "type": "uint256"
                },
                {
                    "indexed": false,
                    "internalType": "uint256",
                    "name": "ticketNftSupply",
                    "type": "uint256"
                }
            ],
            "name": "TicketCreated",
            "type": "event"
        },
        {
            "inputs": [
                {
                    "internalType": "uint256",
                    "name": "ticketId",
                    "type": "uint256"
                },
                {
                    "internalType": "uint256",
                    "name": "amount",
                    "type": "uint256"
                }
            ],
            "name": "buyTicket",
            "outputs": [],
            "stateMutability": "payable",
            "type": "function"
        },
        {
            "inputs": [
                {
                    "internalType": "uint256",
                    "name": "ticketPrice",
                    "type": "uint256"
                },
                {
                    "internalType": "uint256",
                    "name": "ticketSupply",
                    "type": "uint256"
                },
                {
                    "internalType": "uint256",
                    "name": "ticketNftSupply",
                    "type": "uint256"
                }
            ],
            "name": "createTicket",
            "outputs": [],
            "stateMutability": "nonpayable",
            "type": "function"
        },
        {
            "inputs": [],
            "name": "ticketCount",
            "outputs": [
                {
                    "internalType": "uint256",
                    "name": "",
                    "type": "uint256"
                }
            ],
            "stateMutability": "view",
            "type": "function"
        },
        {
            "inputs": [],
            "name": "ticketNft",
            "outputs": [
                {
                    "internalType": "contract TicketNft",
                    "name": "",
                    "type": "address"
                }
            ],
            "stateMutability": "view",
            "type": "function"
        },
        {
            "inputs": [],
            "name": "ticketToken",
            "outputs": [
                {
                    "internalType": "contract TicketToken",
                    "name": "",
                    "type": "address"
                }
            ],
            "stateMutability": "view",
            "type": "function"
        },
        {
            "inputs": [
                {
                    "internalType": "uint256",
                    "name": "",
                    "type": "uint256"
                }
            ],
            "name": "tickets",
            "outputs": [
                {
                    "internalType": "address",
                    "name": "ticket_token",
                    "type": "address"
                },
                {
                    "internalType": "address",
                    "name": "ticket_nft",
                    "type": "address"
                },
                {
                    "internalType": "uint256",
                    "name": "ticket_price",
                    "type": "uint256"
                },
                {
                    "internalType": "uint256",
                    "name": "ticket_supply",
                    "type": "uint256"
                },
                {
                    "internalType": "uint256",
                    "name": "ticket_sold",
                    "type": "uint256"
                },
                {
                    "internalType": "uint256",
                    "name": "ticket_nft_supply",
                    "type": "uint256"
                },
                {
                    "internalType": "uint256",
                    "name": "ticket_nft_sold",
                    "type": "uint256"
                }
            ],
            "stateMutability": "view",
            "type": "function"
        }
    ],
    "bytecode": "60803461010b57601f611f8038819003918201601f19168301916001600160401b038311848410176100f75780849260209460405283398101031261010b575160405190610a598083016001600160401b038111848210176100f757602092849261074d843981520301905ff080156100ec575f80546001600160a01b0319166001600160a01b0392909216919091179055604051610dda8082016001600160401b038111838210176100f75782916111a6833903905ff080156100ec57600180546001600160a01b0319166001600160a01b039290921691909117905560405161063d90816101108239f35b6040513d5f823e3d90fd5b634e487b7160e01b5f52604160045260245ffd5b5f80fdfe6080806040526004361015610012575f80fd5b5f905f3560e01c90816315e472dd146103af57508063298ec2081461014c57806350b44712146100d0578063cfbd900f146100b2578063d5ed4d5a1461008b5763e09b2a6214610060575f80fd5b346100885780600319360112610088576001546040516001600160a01b039091168152602090f35b80fd5b5034610088578060031936011261008857546040516001600160a01b039091168152602090f35b50346100885780600319360112610088576020600354604051908152f35b503461008857602036600319011261008857604060e091600435815260026020522060018060a01b038154169060018060a01b0360018201541690600281015460038201546004830154916006600585015494015494604051968752602087015260408601526060850152608084015260a083015260c0820152f35b506040366003190112610316576024356004355f52600260205260405f2090600482019182549061017d83836105fa565b91600382019283541061036a5760028201548481029080820486149015171561031a57341061032e57836101b0916105fa565b845560018060a01b0360015416600682019081546001810180911161031a57813b15610316575f916064839260405194859384926323b872dd60e01b845230600485015233602485015260448401525af1801561030b576102f6575b50855486906001600160a01b0316803b156102f2578180916044604051809481936340c10f1960e01b83523360048401528b60248401525af180156102e7576102ce575b5050805490600182018092116102ba575560050180545f198101919082116102a657558054908282039182116102925755815461028d91906105fa565b905580f35b634e487b7160e01b85526011600452602485fd5b634e487b7160e01b86526011600452602486fd5b634e487b7160e01b87526011600452602487fd5b816102d8916105d8565b6102e357855f610250565b8580fd5b6040513d84823e3d90fd5b5080fd5b6103039196505f906105d8565b5f945f61020c565b6040513d5f823e3d90fd5b5f80fd5b634e487b7160e01b5f52601160045260245ffd5b60405162461bcd60e51b8152602060048201526014602482015273125b9cdd59999a58da595b9d081c185e5b595b9d60621b6044820152606490fd5b60405162461bcd60e51b815260206004820152601c60248201527f4e6f7420656e6f756768207469636b65747320617661696c61626c65000000006044820152606490fd5b34610316576060366003190112610316576004356024359060443592821561058657508215610535575f546001546040516001600160a01b0391821693919092169160e0810181811067ffffffffffffffff821117610521577fa64577182e7b5e9b9b962e551ddf9585e3f2d7144e02333cb6925a4eccdf12cf9460a094600692604052835260208301908152604083018481526060840188815260808501905f8252878601928b845260c08701945f86526003545f52600260205260405f20976001808c1b03906001808d1b03905116166bffffffffffffffffffffffff8b1b8954161788556001808b1b0390511660018801906001808c1b03166bffffffffffffffffffffffff8b1b82541617905551600287015551600386015551600485015551600584015551910155600354948594600180851b035f541692600180861b03600154166040519485526020850152604084015260608301526080820152a25f19811461031a57600101600355005b634e487b7160e01b5f52604160045260245ffd5b60405162461bcd60e51b8152602060048201526024808201527f4e465420737570706c79206d7573742062652067726561746572207468616e206044820152637a65726f60e01b6064820152608490fd5b62461bcd60e51b815260206004820152602760248201527f5469636b657420737570706c79206d7573742062652067726561746572207468604482015266616e207a65726f60c81b6064820152608490fd5b90601f8019910116810190811067ffffffffffffffff82111761052157604052565b9190820180921161031a5756fea2646970667358221220c26c1065b6420b6d65265edcdfa4b92e4d6986eff228a6175f9f4f1b6eb4485e64736f6c634300081e003360806040523461038e57610a596020813803918261001c81610392565b93849283398101031261038e57516100346040610392565b906006825265151a58dad95d60d21b60208301526100526040610392565b60038152621512d560ea1b602082015282519091906001600160401b03811161029f57600354600181811c91168015610384575b602082101461028157601f8111610321575b506020601f82116001146102be57819293945f926102b3575b50508160011b915f199060031b1c1916176003555b81516001600160401b03811161029f57600454600181811c91168015610295575b602082101461028157601f811161021e575b50602092601f82116001146101bd57928192935f926101b2575b50508160011b915f199060031b1c1916176004555b331561019f5760025481810180911161018b57600255335f525f60205260405f208181540190556040519081525f7fddf252ad1be2c89b69c2b068fc378daa952ba7f163c4a11628f55a4df523b3ef60203393a36040516106a190816103b88239f35b634e487b7160e01b5f52601160045260245ffd5b63ec442f0560e01b5f525f60045260245ffd5b015190505f80610113565b601f1982169360045f52805f20915f5b86811061020657508360019596106101ee575b505050811b01600455610128565b01515f1960f88460031b161c191690555f80806101e0565b919260206001819286850151815501940192016101cd565b60045f527f8a35acfbc15ff81a39ae7d344fd709f28e8600b4aa8c65c6b64bfe7fe36bd19b601f830160051c81019160208410610277575b601f0160051c01905b81811061026c57506100f9565b5f815560010161025f565b9091508190610256565b634e487b7160e01b5f52602260045260245ffd5b90607f16906100e7565b634e487b7160e01b5f52604160045260245ffd5b015190505f806100b1565b601f1982169060035f52805f20915f5b818110610309575095836001959697106102f1575b505050811b016003556100c6565b01515f1960f88460031b161c191690555f80806102e3565b9192602060018192868b0151815501940192016102ce565b60035f527fc2575a0e9e593c00f959f8c92f12db2869c3395a3b0502d05e2516446f71f85b601f830160051c8101916020841061037a575b601f0160051c01905b81811061036f5750610098565b5f8155600101610362565b9091508190610359565b90607f1690610086565b5f80fd5b6040519190601f01601f191682016001600160401b0381118382101761029f5760405256fe6080806040526004361015610012575f80fd5b5f3560e01c90816306fdde031461049c57508063095ea7b31461041a57806318160ddd146103fd57806323b872dd1461031e578063313ce5671461030357806340c10f191461026157806370a082311461022a57806395d89b411461010f578063a9059cbb146100de5763dd62ed3e1461008a575f80fd5b346100da5760403660031901126100da576100a3610595565b6100ab6105ab565b6001600160a01b039182165f908152600160209081526040808320949093168252928352819020549051908152f35b5f80fd5b346100da5760403660031901126100da576101046100fa610595565b60243590336105c1565b602060405160018152f35b346100da575f3660031901126100da576040515f6004548060011c90600181168015610220575b60208310811461020c578285529081156101f0575060011461019b575b50819003601f01601f191681019067ffffffffffffffff821181831017610187576101838291826040528261056b565b0390f35b634e487b7160e01b5f52604160045260245ffd5b905060045f527f8a35acfbc15ff81a39ae7d344fd709f28e8600b4aa8c65c6b64bfe7fe36bd19b5f905b8282106101da57506020915082010182610153565b60018160209254838588010152019101906101c5565b90506020925060ff191682840152151560051b82010182610153565b634e487b7160e01b5f52602260045260245ffd5b91607f1691610136565b346100da5760203660031901126100da576001600160a01b0361024b610595565b165f525f602052602060405f2054604051908152f35b346100da5760403660031901126100da5761027a610595565b6001600160a01b031660243581156102f057600254908082018092116102dc5760207fddf252ad1be2c89b69c2b068fc378daa952ba7f163c4a11628f55a4df523b3ef915f9360025584845283825260408420818154019055604051908152a3005b634e487b7160e01b5f52601160045260245ffd5b63ec442f0560e01b5f525f60045260245ffd5b346100da575f3660031901126100da57602060405160128152f35b346100da5760603660031901126100da57610337610595565b61033f6105ab565b6001600160a01b0382165f818152600160209081526040808320338452909152902054909260443592915f19811061037d575b5061010493506105c1565b8381106103e25784156103cf5733156103bc57610104945f52600160205260405f2060018060a01b0333165f526020528360405f209103905584610372565b634a1406b160e11b5f525f60045260245ffd5b63e602df0560e01b5f525f60045260245ffd5b8390637dc7a0d960e11b5f523360045260245260445260645ffd5b346100da575f3660031901126100da576020600254604051908152f35b346100da5760403660031901126100da57610433610595565b6024359033156103cf576001600160a01b03169081156103bc57335f52600160205260405f20825f526020528060405f20556040519081527f8c5be1e5ebec7d5bd14f71427d1e84f3dd0314c0f7b2291e5b200ac8c7c3b92560203392a3602060405160018152f35b346100da575f3660031901126100da575f6003548060011c90600181168015610561575b60208310811461020c578285529081156101f0575060011461050c5750819003601f01601f191681019067ffffffffffffffff821181831017610187576101838291826040528261056b565b905060035f527fc2575a0e9e593c00f959f8c92f12db2869c3395a3b0502d05e2516446f71f85b5f905b82821061054b57506020915082010182610153565b6001816020925483858801015201910190610536565b91607f16916104c0565b602060409281835280519182918282860152018484015e5f828201840152601f01601f1916010190565b600435906001600160a01b03821682036100da57565b602435906001600160a01b03821682036100da57565b6001600160a01b0316908115610658576001600160a01b03169182156102f057815f525f60205260405f205481811061063f57817fddf252ad1be2c89b69c2b068fc378daa952ba7f163c4a11628f55a4df523b3ef92602092855f525f84520360405f2055845f525f825260405f20818154019055604051908152a3565b8263391434e360e21b5f5260045260245260445260645ffd5b634b637e8f60e11b5f525f60045260245ffdfea26469706673582212202d951802f3c46a7472615eeb8b9289363374091af61c92362e4ad1a3aaeb6e9f64736f6c634300081e003360806040523461030e57604080519081016001600160401b038111828210176102245760409081526009825268151a58dad95d13999d60ba1b602083015280519081016001600160401b038111828210176102245760405260048152631513919560e21b602082015281516001600160401b038111610224575f54600181811c91168015610304575b602082101461020657601f81116102a2575b50602092601f821160011461024357928192935f92610238575b50508160011b915f199060031b1c1916175f555b80516001600160401b03811161022457600154600181811c9116801561021a575b602082101461020657601f81116101a3575b50602091601f8211600114610143579181925f92610138575b50508160011b915f199060031b1c1916176001555b604051610ac790816103138239f35b015190505f80610114565b601f1982169260015f52805f20915f5b85811061018b57508360019510610173575b505050811b01600155610129565b01515f1960f88460031b161c191690555f8080610165565b91926020600181928685015181550194019201610153565b60015f527fb10e2d527612073b26eecdfd717e6a320cf44b4afac2b0732d9fcbe2b7fa0cf6601f830160051c810191602084106101fc575b601f0160051c01905b8181106101f157506100fb565b5f81556001016101e4565b90915081906101db565b634e487b7160e01b5f52602260045260245ffd5b90607f16906100e9565b634e487b7160e01b5f52604160045260245ffd5b015190505f806100b4565b601f198216935f8052805f20915f5b86811061028a5750836001959610610272575b505050811b015f556100c8565b01515f1960f88460031b161c191690555f8080610265565b91926020600181928685015181550194019201610252565b5f80527f290decd9548b62a8d60345a988386fc84ba6bc95484008f6362f93160ef3e563601f830160051c810191602084106102fa575b601f0160051c01905b8181106102ef575061009a565b5f81556001016102e2565b90915081906102d9565b90607f1690610088565b5f80fdfe6080806040526004361015610012575f80fd5b5f905f3560e01c90816301ffc9a7146106305750806306fdde0314610578578063081812fc1461053c578063095ea7b31461045257806323b872dd1461043b57806342842e0e146104125780636352211e146103e257806370a082311461039157806395d89b4114610289578063a22cb465146101ee578063b88d4fde14610164578063c87b56dd146101075763e985e9c5146100ad575f80fd5b346101045760403660031901126101045760406100c86106bf565b916100d16106d5565b9260018060a01b031681526005602052209060018060a01b03165f52602052602060ff60405f2054166040519015158152f35b80fd5b3461016057602036600319011261016057610123600435610a5d565b505f604051610133602082610725565b5261015c604051610145602082610725565b5f815260405191829160208352602083019061069b565b0390f35b5f80fd5b346101605760803660031901126101605761017d6106bf565b6101856106d5565b6064359167ffffffffffffffff83116101605736602384011215610160578260040135916101b28361075b565b926101c06040519485610725565b8084523660248287010111610160576020815f9260246101ec980183880137850101526044359161091d565b005b34610160576040366003190112610160576102076106bf565b60243590811515809203610160576001600160a01b031690811561027657335f52600560205260405f20825f5260205260405f2060ff1981541660ff83161790556040519081527f17307eab39ab6107e8899845ad3d59bd9653f200f220920489ca2b5937696c3160203392a3005b50630b61174360e31b5f5260045260245ffd5b34610160575f366003190112610160576040515f6001548060011c90600181168015610387575b6020831081146103735782855290811561034f57506001146102f1575b61015c836102dd81850382610725565b60405191829160208352602083019061069b565b91905060015f527fb10e2d527612073b26eecdfd717e6a320cf44b4afac2b0732d9fcbe2b7fa0cf6915f905b808210610335575090915081016020016102dd6102cd565b91926001816020925483858801015201910190929161031d565b60ff191660208086019190915291151560051b840190910191506102dd90506102cd565b634e487b7160e01b5f52602260045260245ffd5b91607f16916102b0565b34610160576020366003190112610160576001600160a01b036103b26106bf565b1680156103cf575f526003602052602060405f2054604051908152f35b6322718ad960e21b5f525f60045260245ffd5b34610160576020366003190112610160576020610400600435610a5d565b6040516001600160a01b039091168152f35b34610160576101ec610423366106eb565b9060405192610433602085610725565b5f845261091d565b34610160576101ec61044c366106eb565b91610777565b346101605760403660031901126101605761046b6106bf565b60243561047781610a5d565b33151580610529575b806104fc575b6104e95781906001600160a01b0384811691167f8c5be1e5ebec7d5bd14f71427d1e84f3dd0314c0f7b2291e5b200ac8c7c3b9255f80a45f90815260046020526040902080546001600160a01b0319166001600160a01b03909216919091179055005b63a9fbf51f60e01b5f523360045260245ffd5b506001600160a01b0381165f90815260056020908152604080832033845290915290205460ff1615610486565b506001600160a01b038116331415610480565b346101605760203660031901126101605760043561055981610a5d565b505f526004602052602060018060a01b0360405f205416604051908152f35b34610160575f366003190112610160576040515f5f548060011c90600181168015610626575b6020831081146103735782855290811561034f57506001146105ca5761015c836102dd81850382610725565b5f8080527f290decd9548b62a8d60345a988386fc84ba6bc95484008f6362f93160ef3e563939250905b80821061060c575090915081016020016102dd6102cd565b9192600181602092548385880101520191019092916105f4565b91607f169161059e565b34610160576020366003190112610160576004359063ffffffff60e01b8216809203610160576020916380ac58cd60e01b811490811561068a575b8115610679575b5015158152f35b6301ffc9a760e01b14905083610672565b635b5e139f60e01b8114915061066b565b805180835260209291819084018484015e5f828201840152601f01601f1916010190565b600435906001600160a01b038216820361016057565b602435906001600160a01b038216820361016057565b6060906003190112610160576004356001600160a01b038116810361016057906024356001600160a01b0381168103610160579060443590565b90601f8019910116810190811067ffffffffffffffff82111761074757604052565b634e487b7160e01b5f52604160045260245ffd5b67ffffffffffffffff811161074757601f01601f191660200190565b6001600160a01b039091169190821561090a575f828152600260205260409020546001600160a01b031692829033151580610875575b508461083c575b805f52600360205260405f2060018154019055815f52600260205260405f20816bffffffffffffffffffffffff60a01b825416179055847fddf252ad1be2c89b69c2b068fc378daa952ba7f163c4a11628f55a4df523b3ef5f80a46001600160a01b031680830361082457505050565b6364283d7b60e01b5f5260045260245260445260645ffd5b815f52600460205260405f206bffffffffffffffffffffffff60a01b8154169055845f52600360205260405f205f1981540190556107b4565b909150806108b9575b1561088b5782905f6107ad565b82846108a357637e27328960e01b5f5260045260245ffd5b63177e802f60e01b5f523360045260245260445ffd5b5033841480156108e8575b8061087e57505f838152600460205260409020546001600160a01b0316331461087e565b505f84815260056020908152604080832033845290915290205460ff166108c4565b633250574960e11b5f525f60045260245ffd5b929161092a818386610777565b813b610937575b50505050565b604051630a85bd0160e11b81523360048201526001600160a01b039485166024820152604481019190915260806064820152921691906020908290819061098290608483019061069b565b03815f865af15f9181610a18575b506109e557503d156109de573d6109a68161075b565b906109b46040519283610725565b81523d5f602083013e5b805190816109d95782633250574960e11b5f5260045260245ffd5b602001fd5b60606109be565b6001600160e01b03191663757a42ff60e11b01610a0657505f808080610931565b633250574960e11b5f5260045260245ffd5b9091506020813d602011610a55575b81610a3460209383610725565b8101031261016057516001600160e01b03198116810361016057905f610990565b3d9150610a27565b5f818152600260205260409020546001600160a01b0316908115610a7f575090565b637e27328960e01b5f5260045260245ffdfea26469706673582212202c59aeaf905dcebb94bfdb4988bd3f1de890cf9e5e56e5357cbb495810ca559e64736f6c634300081e0033",
    "sourcePath": "c:/Users/HP/Desktop/Web3bridge-Web3-Cohort-XIII-5/onsite-program/submissions/week-5/day-5/marcelina/ticket/src/EventTicket.sol",
    "compiler": {
        "name": "solc",
        "version": "0.8.30+commit.73712a01"
    },
    "functionHashes": {
        "buyTicket(uint256,uint256)": "298ec208",
        "createTicket(uint256,uint256,uint256)": "15e472dd",
        "ticketCount()": "cfbd900f",
        "ticketNft()": "e09b2a62",
        "ticketToken()": "d5ed4d5a",
        "tickets(uint256)": "50b44712"
    },
    "gasEstimates": {
        "creation": {
            "codeDepositCost": "319400",
            "executionCost": "infinite",
            "totalCost": "infinite"
        },
        "external": {
            "buyTicket(uint256,uint256)": "infinite",
            "createTicket(uint256,uint256,uint256)": "162699",
            "ticketCount()": "2330",
            "ticketNft()": "2393",
            "ticketToken()": "2373",
            "tickets(uint256)": "15169"
        }
    }
}